{"contracts/BasicDutchAuction.sol":{"BasicDutchAuction":{"abi":[{"inputs":[{"internalType":"uint256","name":"_reservePrice","type":"uint256"},{"internalType":"uint256","name":"_numBlocksAuctionOpen","type":"uint256"},{"internalType":"uint256","name":"_offerPriceDecrement","type":"uint256"}],"stateMutability":"nonpayable","type":"constructor"},{"anonymous":false,"inputs":[{"indexed":false,"internalType":"address","name":"winner","type":"address"},{"indexed":false,"internalType":"uint256","name":"amount","type":"uint256"}],"name":"AuctionEnded","type":"event"},{"inputs":[],"name":"auctionEndBlock","outputs":[{"internalType":"uint256","name":"","type":"uint256"}],"stateMutability":"view","type":"function"},{"inputs":[],"name":"auctionStartingPrice","outputs":[{"internalType":"uint256","name":"","type":"uint256"}],"stateMutability":"view","type":"function"},{"inputs":[{"internalType":"address","name":"","type":"address"}],"name":"bidAmountsByAddress","outputs":[{"internalType":"uint256","name":"","type":"uint256"}],"stateMutability":"view","type":"function"},{"inputs":[],"name":"claimRefund","outputs":[],"stateMutability":"nonpayable","type":"function"},{"inputs":[{"internalType":"address","name":"account","type":"address"}],"name":"getBidAmount","outputs":[{"internalType":"uint256","name":"","type":"uint256"}],"stateMutability":"view","type":"function"},{"inputs":[],"name":"getCurrentPrice","outputs":[{"internalType":"uint256","name":"","type":"uint256"}],"stateMutability":"view","type":"function"},{"inputs":[],"name":"initialBidAmount","outputs":[{"internalType":"uint256","name":"","type":"uint256"}],"stateMutability":"view","type":"function"},{"inputs":[],"name":"initialBidder","outputs":[{"internalType":"address payable","name":"","type":"address"}],"stateMutability":"view","type":"function"},{"inputs":[],"name":"isAuctionOver","outputs":[{"internalType":"bool","name":"","type":"bool"}],"stateMutability":"view","type":"function"},{"inputs":[],"name":"numBlocksAuctionOpen","outputs":[{"internalType":"uint256","name":"","type":"uint256"}],"stateMutability":"view","type":"function"},{"inputs":[],"name":"offerPriceDecrement","outputs":[{"internalType":"uint256","name":"","type":"uint256"}],"stateMutability":"view","type":"function"},{"inputs":[],"name":"owner","outputs":[{"internalType":"address payable","name":"","type":"address"}],"stateMutability":"view","type":"function"},{"inputs":[],"name":"placeBid","outputs":[{"internalType":"bool","name":"","type":"bool"}],"stateMutability":"payable","type":"function"},{"inputs":[],"name":"receivedValidBid","outputs":[{"internalType":"bool","name":"","type":"bool"}],"stateMutability":"view","type":"function"},{"inputs":[],"name":"reservePrice","outputs":[{"internalType":"uint256","name":"","type":"uint256"}],"stateMutability":"view","type":"function"}],"evm":{"bytecode":{"linkReferences":{},"object":"60806040523480156200001157600080fd5b5060405162001523380380620015238339818101604052810190620000379190620002c8565b6200005367d96e82debd6128b360c01b6200028560201b60201c565b6200006f67c3de2e11d29bc24e60c01b6200028560201b60201c565b336000806101000a81548173ffffffffffffffffffffffffffffffffffffffff021916908373ffffffffffffffffffffffffffffffffffffffff160217905550620000cb67430d1977be11b64d60c01b6200028560201b60201c565b82600181905550620000ee67e97be9a4f0d9ef7660c01b6200028560201b60201c565b816002819055506200011167c195cdc55cb8d8ff60c01b6200028560201b60201c565b8060038190555062000134672b476f21e298d1ce60c01b6200028560201b60201c565b60035460025462000146919062000353565b6001546200015591906200039e565b60048190555062000177676708c95ae1beabba60c01b6200028560201b60201c565b600254436200018791906200039e565b600581905550620001a967f56733c3b74bf01360c01b6200028560201b60201c565b6000600660006101000a81548160ff021916908315150217905550620001e06759789c0c41ae922860c01b6200028560201b60201c565b6000600860006101000a81548160ff0219169083151502179055506200021666778b70e665937760c01b6200028560201b60201c565b6000600660016101000a81548173ffffffffffffffffffffffffffffffffffffffff021916908373ffffffffffffffffffffffffffffffffffffffff1602179055506200027467a7d0536fa1bb058860c01b6200028560201b60201c565b6000600781905550505050620003d9565b50565b600080fd5b6000819050919050565b620002a2816200028d565b8114620002ae57600080fd5b50565b600081519050620002c28162000297565b92915050565b600080600060608486031215620002e457620002e362000288565b5b6000620002f486828701620002b1565b93505060206200030786828701620002b1565b92505060406200031a86828701620002b1565b9150509250925092565b7f4e487b7100000000000000000000000000000000000000000000000000000000600052601160045260246000fd5b600062000360826200028d565b91506200036d836200028d565b92508282026200037d816200028d565b9150828204841483151762000397576200039662000324565b5b5092915050565b6000620003ab826200028d565b9150620003b8836200028d565b9250828201905080821115620003d357620003d262000324565b5b92915050565b61113a80620003e96000396000f3fe6080604052600436106100e85760003560e01c80638da5cb5b1161008a578063d3642a8811610059578063d3642a88146102d6578063db2e1eed14610301578063eb91d37e1461032c578063ecfc7ecc14610357576100e8565b80638da5cb5b1461022c5780639725e6b214610257578063aceffdc614610282578063b5545a3c146102bf576100e8565b80633103ea62116100c65780633103ea62146101805780633882ce8e146101ab5780635f5ecf36146101d65780638b32778f14610201576100e8565b806305faab3e146100ed57806307d52fa81461011857806313b9b59814610143575b600080fd5b3480156100f957600080fd5b50610102610375565b60405161010f9190610d01565b60405180910390f35b34801561012457600080fd5b5061012d61037b565b60405161013a9190610d01565b60405180910390f35b34801561014f57600080fd5b5061016a60048036038101906101659190610d7f565b610381565b6040516101779190610d01565b60405180910390f35b34801561018c57600080fd5b50610195610406565b6040516101a29190610d01565b60405180910390f35b3480156101b757600080fd5b506101c061040c565b6040516101cd9190610dcd565b60405180910390f35b3480156101e257600080fd5b506101eb610432565b6040516101f89190610e03565b60405180910390f35b34801561020d57600080fd5b50610216610445565b6040516102239190610d01565b60405180910390f35b34801561023857600080fd5b5061024161044b565b60405161024e9190610dcd565b60405180910390f35b34801561026357600080fd5b5061026c61046f565b6040516102799190610e03565b60405180910390f35b34801561028e57600080fd5b506102a960048036038101906102a49190610d7f565b610482565b6040516102b69190610d01565b60405180910390f35b3480156102cb57600080fd5b506102d461049a565b005b3480156102e257600080fd5b506102eb6106b7565b6040516102f89190610d01565b60405180910390f35b34801561030d57600080fd5b506103166106bd565b6040516103239190610d01565b60405180910390f35b34801561033857600080fd5b506103416106c3565b60405161034e9190610d01565b60405180910390f35b61035f6107e7565b60405161036c9190610e03565b60405180910390f35b60075481565b60055481565b600061039767d355cbcbcbe5a02c60c01b610ce5565b6103ab67f02a933dfa46310760c01b610ce5565b6103bf67b3db7313590a8f6660c01b610ce5565b600960008373ffffffffffffffffffffffffffffffffffffffff1673ffffffffffffffffffffffffffffffffffffffff168152602001908152602001600020549050919050565b60025481565b600660019054906101000a900473ffffffffffffffffffffffffffffffffffffffff1681565b600660009054906101000a900460ff1681565b60045481565b60008054906101000a900473ffffffffffffffffffffffffffffffffffffffff1681565b600860009054906101000a900460ff1681565b60096020528060005260406000206000915090505481565b6104ae6744890d4c1fe530ae60c01b610ce5565b6104c26713b2c5c4376f4ff660c01b610ce5565b6104d667b0abe7c3b97f7e6260c01b610ce5565b6104ea6723c06dc43ea8987c60c01b610ce5565b6000600960003373ffffffffffffffffffffffffffffffffffffffff1673ffffffffffffffffffffffffffffffffffffffff168152602001908152602001600020541161056c576040517f08c379a000000000000000000000000000000000000000000000000000000000815260040161056390610e7b565b60405180910390fd5b610580670788e996ea485c3d60c01b610ce5565b61059467b5056378e9583c9360c01b610ce5565b6105a867aa986c957a5dc2c560c01b610ce5565b6000600960003373ffffffffffffffffffffffffffffffffffffffff1673ffffffffffffffffffffffffffffffffffffffff16815260200190815260200160002054905061060067d1a6af018f1394ed60c01b610ce5565b6000600960003373ffffffffffffffffffffffffffffffffffffffff1673ffffffffffffffffffffffffffffffffffffffff168152602001908152602001600020819055506106596779a04eccf33562f860c01b610ce5565b61066d67f640d0b04381c96960c01b610ce5565b3373ffffffffffffffffffffffffffffffffffffffff166108fc829081150290604051600060405180830381858888f193505050501580156106b3573d6000803e3d6000fd5b5050565b60035481565b60015481565b60006106d96770a86ffe1fc1b45860c01b610ce5565b6106ed673a60472db2eb09ae60c01b610ce5565b61070167d8299a34a301a73c60c01b610ce5565b600554431061074f5761071e67fa3cae332194873960c01b610ce5565b6107326717cd5cd693d11de660c01b610ce5565b61074667dfccdf49b2c4b5bd60c01b610ce5565b600090506107e4565b61076367d405dad93360308f60c01b610ce5565b61077767a926a5d6a2e8305a60c01b610ce5565b61078b67ef6ed43690c7900060c01b610ce5565b60004360055461079b9190610eca565b90506107b167d52753adc648374660c01b610ce5565b6107c567bb59d6fe6914869a60c01b610ce5565b600354816107d39190610efe565b6004546107e09190610eca565b9150505b90565b60006107fd67295d3109fbaa415c60c01b610ce5565b61081167f90825364a36246f60c01b610ce5565b610825679076f85eeffd0f4960c01b610ce5565b600061082f6106c3565b9050610845670d8a0757994b683760c01b610ce5565b610859676a04dfbd363dcf5e60c01b610ce5565b61086d67e0de2f7e3ef1efa960c01b610ce5565b600660009054906101000a900460ff16156108bd576040517f08c379a00000000000000000000000000000000000000000000000000000000081526004016108b490610f8c565b60405180910390fd5b6108d1678408073293845e8760c01b610ce5565b6108e5674fde54871dfd789960c01b610ce5565b6108f96711306500eab6f10760c01b610ce5565b61090d676d3f70c64909063760c01b610ce5565b60003411610950576040517f08c379a00000000000000000000000000000000000000000000000000000000081526004016109479061101e565b60405180910390fd5b61096467c3ceb1fa4ae57c0460c01b610ce5565b6109786757f8b430f6fdabeb60c01b610ce5565b61098c673d38bcac9a82fa7960c01b610ce5565b6109a067d032a39ab50f567360c01b610ce5565b803410156109e3576040517f08c379a00000000000000000000000000000000000000000000000000000000081526004016109da906110b0565b60405180910390fd5b6109f767df6b2c0e38ee4b9460c01b610ce5565b610a0b673acf3fea1825b43660c01b610ce5565b610a1f67fb052596f0febd9360c01b610ce5565b600860009054906101000a900460ff16610c3657610a476764bb41df56bd2f3d60c01b610ce5565b610a5b67168db6891b43322c60c01b610ce5565b33600660016101000a81548173ffffffffffffffffffffffffffffffffffffffff021916908373ffffffffffffffffffffffffffffffffffffffff160217905550610ab067c0b4649678a9644b60c01b610ce5565b34600781905550610acb676024cea0b1a4311360c01b610ce5565b6001600860006101000a81548160ff021916908315150217905550610afa67c1c83de8b7296f7860c01b610ce5565b600754600960008060009054906101000a900473ffffffffffffffffffffffffffffffffffffffff1673ffffffffffffffffffffffffffffffffffffffff1673ffffffffffffffffffffffffffffffffffffffff1681526020019081526020016000206000828254610b6c91906110d0565b92505081905550610b87670b88047aa3f878e060c01b610ce5565b610b9b6711f30fdcfb91708160c01b610ce5565b60008054906101000a900473ffffffffffffffffffffffffffffffffffffffff1673ffffffffffffffffffffffffffffffffffffffff166108fc6007549081150290604051600060405180830381858888f19350505050158015610c03573d6000803e3d6000fd5b50610c18679493214a534f0a0f60c01b610ce5565b610c2c67c0dad7c5f4a63e1260c01b610ce5565b6001915050610ce2565b610c4a67ad4716b14b08e9ab60c01b610ce5565b610c5e6713ccabfe995049e060c01b610ce5565b34600960003373ffffffffffffffffffffffffffffffffffffffff1673ffffffffffffffffffffffffffffffffffffffff1681526020019081526020016000206000828254610cad91906110d0565b92505081905550610cc867abcc64bf5e05b4bc60c01b610ce5565b610cdc67268eeea5bfa59b7060c01b610ce5565b60009150505b90565b50565b6000819050919050565b610cfb81610ce8565b82525050565b6000602082019050610d166000830184610cf2565b92915050565b600080fd5b600073ffffffffffffffffffffffffffffffffffffffff82169050919050565b6000610d4c82610d21565b9050919050565b610d5c81610d41565b8114610d6757600080fd5b50565b600081359050610d7981610d53565b92915050565b600060208284031215610d9557610d94610d1c565b5b6000610da384828501610d6a565b91505092915050565b6000610db782610d21565b9050919050565b610dc781610dac565b82525050565b6000602082019050610de26000830184610dbe565b92915050565b60008115159050919050565b610dfd81610de8565b82525050565b6000602082019050610e186000830184610df4565b92915050565b600082825260208201905092915050565b7f4e6f20726566756e6420617661696c61626c6500000000000000000000000000600082015250565b6000610e65601383610e1e565b9150610e7082610e2f565b602082019050919050565b60006020820190508181036000830152610e9481610e58565b9050919050565b7f4e487b7100000000000000000000000000000000000000000000000000000000600052601160045260246000fd5b6000610ed582610ce8565b9150610ee083610ce8565b9250828203905081811115610ef857610ef7610e9b565b5b92915050565b6000610f0982610ce8565b9150610f1483610ce8565b9250828202610f2281610ce8565b91508282048414831517610f3957610f38610e9b565b5b5092915050565b7f41756374696f6e2068617320656e646564000000000000000000000000000000600082015250565b6000610f76601183610e1e565b9150610f8182610f40565b602082019050919050565b60006020820190508181036000830152610fa581610f69565b9050919050565b7f42696420616d6f756e74206d7573742062652067726561746572207468616e2060008201527f3000000000000000000000000000000000000000000000000000000000000000602082015250565b6000611008602183610e1e565b915061101382610fac565b604082019050919050565b6000602082019050818103600083015261103781610ffb565b9050919050565b7f42696420616d6f756e74206973206c6f776572207468616e2063757272656e7460008201527f2070726963650000000000000000000000000000000000000000000000000000602082015250565b600061109a602683610e1e565b91506110a58261103e565b604082019050919050565b600060208201905081810360008301526110c98161108d565b9050919050565b60006110db82610ce8565b91506110e683610ce8565b92508282019050808211156110fe576110fd610e9b565b5b9291505056fea2646970667358221220ffcd30a46f4faeb28653db0c17bf7d4f675740b7eee9b501bb8f1bc52119927664736f6c63430008120033","opcodes":"PUSH1 0x80 PUSH1 0x40 MSTORE CALLVALUE DUP1 ISZERO PUSH3 0x11 JUMPI PUSH1 0x0 DUP1 REVERT JUMPDEST POP PUSH1 0x40 MLOAD PUSH3 0x1523 CODESIZE SUB DUP1 PUSH3 0x1523 DUP4 CODECOPY DUP2 DUP2 ADD PUSH1 0x40 MSTORE DUP2 ADD SWAP1 PUSH3 0x37 SWAP2 SWAP1 PUSH3 0x2C8 JUMP JUMPDEST PUSH3 0x53 PUSH8 0xD96E82DEBD6128B3 PUSH1 0xC0 SHL PUSH3 0x285 PUSH1 0x20 SHL PUSH1 0x20 SHR JUMP JUMPDEST PUSH3 0x6F PUSH8 0xC3DE2E11D29BC24E PUSH1 0xC0 SHL PUSH3 0x285 PUSH1 0x20 SHL PUSH1 0x20 SHR JUMP JUMPDEST CALLER PUSH1 0x0 DUP1 PUSH2 0x100 EXP DUP2 SLOAD DUP2 PUSH20 0xFFFFFFFFFFFFFFFFFFFFFFFFFFFFFFFFFFFFFFFF MUL NOT AND SWAP1 DUP4 PUSH20 0xFFFFFFFFFFFFFFFFFFFFFFFFFFFFFFFFFFFFFFFF AND MUL OR SWAP1 SSTORE POP PUSH3 0xCB PUSH8 0x430D1977BE11B64D PUSH1 0xC0 SHL PUSH3 0x285 PUSH1 0x20 SHL PUSH1 0x20 SHR JUMP JUMPDEST DUP3 PUSH1 0x1 DUP2 SWAP1 SSTORE POP PUSH3 0xEE PUSH8 0xE97BE9A4F0D9EF76 PUSH1 0xC0 SHL PUSH3 0x285 PUSH1 0x20 SHL PUSH1 0x20 SHR JUMP JUMPDEST DUP2 PUSH1 0x2 DUP2 SWAP1 SSTORE POP PUSH3 0x111 PUSH8 0xC195CDC55CB8D8FF PUSH1 0xC0 SHL PUSH3 0x285 PUSH1 0x20 SHL PUSH1 0x20 SHR JUMP JUMPDEST DUP1 PUSH1 0x3 DUP2 SWAP1 SSTORE POP PUSH3 0x134 PUSH8 0x2B476F21E298D1CE PUSH1 0xC0 SHL PUSH3 0x285 PUSH1 0x20 SHL PUSH1 0x20 SHR JUMP JUMPDEST PUSH1 0x3 SLOAD PUSH1 0x2 SLOAD PUSH3 0x146 SWAP2 SWAP1 PUSH3 0x353 JUMP JUMPDEST PUSH1 0x1 SLOAD PUSH3 0x155 SWAP2 SWAP1 PUSH3 0x39E JUMP JUMPDEST PUSH1 0x4 DUP2 SWAP1 SSTORE POP PUSH3 0x177 PUSH8 0x6708C95AE1BEABBA PUSH1 0xC0 SHL PUSH3 0x285 PUSH1 0x20 SHL PUSH1 0x20 SHR JUMP JUMPDEST PUSH1 0x2 SLOAD NUMBER PUSH3 0x187 SWAP2 SWAP1 PUSH3 0x39E JUMP JUMPDEST PUSH1 0x5 DUP2 SWAP1 SSTORE POP PUSH3 0x1A9 PUSH8 0xF56733C3B74BF013 PUSH1 0xC0 SHL PUSH3 0x285 PUSH1 0x20 SHL PUSH1 0x20 SHR JUMP JUMPDEST PUSH1 0x0 PUSH1 0x6 PUSH1 0x0 PUSH2 0x100 EXP DUP2 SLOAD DUP2 PUSH1 0xFF MUL NOT AND SWAP1 DUP4 ISZERO ISZERO MUL OR SWAP1 SSTORE POP PUSH3 0x1E0 PUSH8 0x59789C0C41AE9228 PUSH1 0xC0 SHL PUSH3 0x285 PUSH1 0x20 SHL PUSH1 0x20 SHR JUMP JUMPDEST PUSH1 0x0 PUSH1 0x8 PUSH1 0x0 PUSH2 0x100 EXP DUP2 SLOAD DUP2 PUSH1 0xFF MUL NOT AND SWAP1 DUP4 ISZERO ISZERO MUL OR SWAP1 SSTORE POP PUSH3 0x216 PUSH7 0x778B70E6659377 PUSH1 0xC0 SHL PUSH3 0x285 PUSH1 0x20 SHL PUSH1 0x20 SHR JUMP JUMPDEST PUSH1 0x0 PUSH1 0x6 PUSH1 0x1 PUSH2 0x100 EXP DUP2 SLOAD DUP2 PUSH20 0xFFFFFFFFFFFFFFFFFFFFFFFFFFFFFFFFFFFFFFFF MUL NOT AND SWAP1 DUP4 PUSH20 0xFFFFFFFFFFFFFFFFFFFFFFFFFFFFFFFFFFFFFFFF AND MUL OR SWAP1 SSTORE POP PUSH3 0x274 PUSH8 0xA7D0536FA1BB0588 PUSH1 0xC0 SHL PUSH3 0x285 PUSH1 0x20 SHL PUSH1 0x20 SHR JUMP JUMPDEST PUSH1 0x0 PUSH1 0x7 DUP2 SWAP1 SSTORE POP POP POP POP PUSH3 0x3D9 JUMP JUMPDEST POP JUMP JUMPDEST PUSH1 0x0 DUP1 REVERT JUMPDEST PUSH1 0x0 DUP2 SWAP1 POP SWAP2 SWAP1 POP JUMP JUMPDEST PUSH3 0x2A2 DUP2 PUSH3 0x28D JUMP JUMPDEST DUP2 EQ PUSH3 0x2AE JUMPI PUSH1 0x0 DUP1 REVERT JUMPDEST POP JUMP JUMPDEST PUSH1 0x0 DUP2 MLOAD SWAP1 POP PUSH3 0x2C2 DUP2 PUSH3 0x297 JUMP JUMPDEST SWAP3 SWAP2 POP POP JUMP JUMPDEST PUSH1 0x0 DUP1 PUSH1 0x0 PUSH1 0x60 DUP5 DUP7 SUB SLT ISZERO PUSH3 0x2E4 JUMPI PUSH3 0x2E3 PUSH3 0x288 JUMP JUMPDEST JUMPDEST PUSH1 0x0 PUSH3 0x2F4 DUP7 DUP3 DUP8 ADD PUSH3 0x2B1 JUMP JUMPDEST SWAP4 POP POP PUSH1 0x20 PUSH3 0x307 DUP7 DUP3 DUP8 ADD PUSH3 0x2B1 JUMP JUMPDEST SWAP3 POP POP PUSH1 0x40 PUSH3 0x31A DUP7 DUP3 DUP8 ADD PUSH3 0x2B1 JUMP JUMPDEST SWAP2 POP POP SWAP3 POP SWAP3 POP SWAP3 JUMP JUMPDEST PUSH32 0x4E487B7100000000000000000000000000000000000000000000000000000000 PUSH1 0x0 MSTORE PUSH1 0x11 PUSH1 0x4 MSTORE PUSH1 0x24 PUSH1 0x0 REVERT JUMPDEST PUSH1 0x0 PUSH3 0x360 DUP3 PUSH3 0x28D JUMP JUMPDEST SWAP2 POP PUSH3 0x36D DUP4 PUSH3 0x28D JUMP JUMPDEST SWAP3 POP DUP3 DUP3 MUL PUSH3 0x37D DUP2 PUSH3 0x28D JUMP JUMPDEST SWAP2 POP DUP3 DUP3 DIV DUP5 EQ DUP4 ISZERO OR PUSH3 0x397 JUMPI PUSH3 0x396 PUSH3 0x324 JUMP JUMPDEST JUMPDEST POP SWAP3 SWAP2 POP POP JUMP JUMPDEST PUSH1 0x0 PUSH3 0x3AB DUP3 PUSH3 0x28D JUMP JUMPDEST SWAP2 POP PUSH3 0x3B8 DUP4 PUSH3 0x28D JUMP JUMPDEST SWAP3 POP DUP3 DUP3 ADD SWAP1 POP DUP1 DUP3 GT ISZERO PUSH3 0x3D3 JUMPI PUSH3 0x3D2 PUSH3 0x324 JUMP JUMPDEST JUMPDEST SWAP3 SWAP2 POP POP JUMP JUMPDEST PUSH2 0x113A DUP1 PUSH3 0x3E9 PUSH1 0x0 CODECOPY PUSH1 0x0 RETURN INVALID PUSH1 0x80 PUSH1 0x40 MSTORE PUSH1 0x4 CALLDATASIZE LT PUSH2 0xE8 JUMPI PUSH1 0x0 CALLDATALOAD PUSH1 0xE0 SHR DUP1 PUSH4 0x8DA5CB5B GT PUSH2 0x8A JUMPI DUP1 PUSH4 0xD3642A88 GT PUSH2 0x59 JUMPI DUP1 PUSH4 0xD3642A88 EQ PUSH2 0x2D6 JUMPI DUP1 PUSH4 0xDB2E1EED EQ PUSH2 0x301 JUMPI DUP1 PUSH4 0xEB91D37E EQ PUSH2 0x32C JUMPI DUP1 PUSH4 0xECFC7ECC EQ PUSH2 0x357 JUMPI PUSH2 0xE8 JUMP JUMPDEST DUP1 PUSH4 0x8DA5CB5B EQ PUSH2 0x22C JUMPI DUP1 PUSH4 0x9725E6B2 EQ PUSH2 0x257 JUMPI DUP1 PUSH4 0xACEFFDC6 EQ PUSH2 0x282 JUMPI DUP1 PUSH4 0xB5545A3C EQ PUSH2 0x2BF JUMPI PUSH2 0xE8 JUMP JUMPDEST DUP1 PUSH4 0x3103EA62 GT PUSH2 0xC6 JUMPI DUP1 PUSH4 0x3103EA62 EQ PUSH2 0x180 JUMPI DUP1 PUSH4 0x3882CE8E EQ PUSH2 0x1AB JUMPI DUP1 PUSH4 0x5F5ECF36 EQ PUSH2 0x1D6 JUMPI DUP1 PUSH4 0x8B32778F EQ PUSH2 0x201 JUMPI PUSH2 0xE8 JUMP JUMPDEST DUP1 PUSH4 0x5FAAB3E EQ PUSH2 0xED JUMPI DUP1 PUSH4 0x7D52FA8 EQ PUSH2 0x118 JUMPI DUP1 PUSH4 0x13B9B598 EQ PUSH2 0x143 JUMPI JUMPDEST PUSH1 0x0 DUP1 REVERT JUMPDEST CALLVALUE DUP1 ISZERO PUSH2 0xF9 JUMPI PUSH1 0x0 DUP1 REVERT JUMPDEST POP PUSH2 0x102 PUSH2 0x375 JUMP JUMPDEST PUSH1 0x40 MLOAD PUSH2 0x10F SWAP2 SWAP1 PUSH2 0xD01 JUMP JUMPDEST PUSH1 0x40 MLOAD DUP1 SWAP2 SUB SWAP1 RETURN JUMPDEST CALLVALUE DUP1 ISZERO PUSH2 0x124 JUMPI PUSH1 0x0 DUP1 REVERT JUMPDEST POP PUSH2 0x12D PUSH2 0x37B JUMP JUMPDEST PUSH1 0x40 MLOAD PUSH2 0x13A SWAP2 SWAP1 PUSH2 0xD01 JUMP JUMPDEST PUSH1 0x40 MLOAD DUP1 SWAP2 SUB SWAP1 RETURN JUMPDEST CALLVALUE DUP1 ISZERO PUSH2 0x14F JUMPI PUSH1 0x0 DUP1 REVERT JUMPDEST POP PUSH2 0x16A PUSH1 0x4 DUP1 CALLDATASIZE SUB DUP2 ADD SWAP1 PUSH2 0x165 SWAP2 SWAP1 PUSH2 0xD7F JUMP JUMPDEST PUSH2 0x381 JUMP JUMPDEST PUSH1 0x40 MLOAD PUSH2 0x177 SWAP2 SWAP1 PUSH2 0xD01 JUMP JUMPDEST PUSH1 0x40 MLOAD DUP1 SWAP2 SUB SWAP1 RETURN JUMPDEST CALLVALUE DUP1 ISZERO PUSH2 0x18C JUMPI PUSH1 0x0 DUP1 REVERT JUMPDEST POP PUSH2 0x195 PUSH2 0x406 JUMP JUMPDEST PUSH1 0x40 MLOAD PUSH2 0x1A2 SWAP2 SWAP1 PUSH2 0xD01 JUMP JUMPDEST PUSH1 0x40 MLOAD DUP1 SWAP2 SUB SWAP1 RETURN JUMPDEST CALLVALUE DUP1 ISZERO PUSH2 0x1B7 JUMPI PUSH1 0x0 DUP1 REVERT JUMPDEST POP PUSH2 0x1C0 PUSH2 0x40C JUMP JUMPDEST PUSH1 0x40 MLOAD PUSH2 0x1CD SWAP2 SWAP1 PUSH2 0xDCD JUMP JUMPDEST PUSH1 0x40 MLOAD DUP1 SWAP2 SUB SWAP1 RETURN JUMPDEST CALLVALUE DUP1 ISZERO PUSH2 0x1E2 JUMPI PUSH1 0x0 DUP1 REVERT JUMPDEST POP PUSH2 0x1EB PUSH2 0x432 JUMP JUMPDEST PUSH1 0x40 MLOAD PUSH2 0x1F8 SWAP2 SWAP1 PUSH2 0xE03 JUMP JUMPDEST PUSH1 0x40 MLOAD DUP1 SWAP2 SUB SWAP1 RETURN JUMPDEST CALLVALUE DUP1 ISZERO PUSH2 0x20D JUMPI PUSH1 0x0 DUP1 REVERT JUMPDEST POP PUSH2 0x216 PUSH2 0x445 JUMP JUMPDEST PUSH1 0x40 MLOAD PUSH2 0x223 SWAP2 SWAP1 PUSH2 0xD01 JUMP JUMPDEST PUSH1 0x40 MLOAD DUP1 SWAP2 SUB SWAP1 RETURN JUMPDEST CALLVALUE DUP1 ISZERO PUSH2 0x238 JUMPI PUSH1 0x0 DUP1 REVERT JUMPDEST POP PUSH2 0x241 PUSH2 0x44B JUMP JUMPDEST PUSH1 0x40 MLOAD PUSH2 0x24E SWAP2 SWAP1 PUSH2 0xDCD JUMP JUMPDEST PUSH1 0x40 MLOAD DUP1 SWAP2 SUB SWAP1 RETURN JUMPDEST CALLVALUE DUP1 ISZERO PUSH2 0x263 JUMPI PUSH1 0x0 DUP1 REVERT JUMPDEST POP PUSH2 0x26C PUSH2 0x46F JUMP JUMPDEST PUSH1 0x40 MLOAD PUSH2 0x279 SWAP2 SWAP1 PUSH2 0xE03 JUMP JUMPDEST PUSH1 0x40 MLOAD DUP1 SWAP2 SUB SWAP1 RETURN JUMPDEST CALLVALUE DUP1 ISZERO PUSH2 0x28E JUMPI PUSH1 0x0 DUP1 REVERT JUMPDEST POP PUSH2 0x2A9 PUSH1 0x4 DUP1 CALLDATASIZE SUB DUP2 ADD SWAP1 PUSH2 0x2A4 SWAP2 SWAP1 PUSH2 0xD7F JUMP JUMPDEST PUSH2 0x482 JUMP JUMPDEST PUSH1 0x40 MLOAD PUSH2 0x2B6 SWAP2 SWAP1 PUSH2 0xD01 JUMP JUMPDEST PUSH1 0x40 MLOAD DUP1 SWAP2 SUB SWAP1 RETURN JUMPDEST CALLVALUE DUP1 ISZERO PUSH2 0x2CB JUMPI PUSH1 0x0 DUP1 REVERT JUMPDEST POP PUSH2 0x2D4 PUSH2 0x49A JUMP JUMPDEST STOP JUMPDEST CALLVALUE DUP1 ISZERO PUSH2 0x2E2 JUMPI PUSH1 0x0 DUP1 REVERT JUMPDEST POP PUSH2 0x2EB PUSH2 0x6B7 JUMP JUMPDEST PUSH1 0x40 MLOAD PUSH2 0x2F8 SWAP2 SWAP1 PUSH2 0xD01 JUMP JUMPDEST PUSH1 0x40 MLOAD DUP1 SWAP2 SUB SWAP1 RETURN JUMPDEST CALLVALUE DUP1 ISZERO PUSH2 0x30D JUMPI PUSH1 0x0 DUP1 REVERT JUMPDEST POP PUSH2 0x316 PUSH2 0x6BD JUMP JUMPDEST PUSH1 0x40 MLOAD PUSH2 0x323 SWAP2 SWAP1 PUSH2 0xD01 JUMP JUMPDEST PUSH1 0x40 MLOAD DUP1 SWAP2 SUB SWAP1 RETURN JUMPDEST CALLVALUE DUP1 ISZERO PUSH2 0x338 JUMPI PUSH1 0x0 DUP1 REVERT JUMPDEST POP PUSH2 0x341 PUSH2 0x6C3 JUMP JUMPDEST PUSH1 0x40 MLOAD PUSH2 0x34E SWAP2 SWAP1 PUSH2 0xD01 JUMP JUMPDEST PUSH1 0x40 MLOAD DUP1 SWAP2 SUB SWAP1 RETURN JUMPDEST PUSH2 0x35F PUSH2 0x7E7 JUMP JUMPDEST PUSH1 0x40 MLOAD PUSH2 0x36C SWAP2 SWAP1 PUSH2 0xE03 JUMP JUMPDEST PUSH1 0x40 MLOAD DUP1 SWAP2 SUB SWAP1 RETURN JUMPDEST PUSH1 0x7 SLOAD DUP2 JUMP JUMPDEST PUSH1 0x5 SLOAD DUP2 JUMP JUMPDEST PUSH1 0x0 PUSH2 0x397 PUSH8 0xD355CBCBCBE5A02C PUSH1 0xC0 SHL PUSH2 0xCE5 JUMP JUMPDEST PUSH2 0x3AB PUSH8 0xF02A933DFA463107 PUSH1 0xC0 SHL PUSH2 0xCE5 JUMP JUMPDEST PUSH2 0x3BF PUSH8 0xB3DB7313590A8F66 PUSH1 0xC0 SHL PUSH2 0xCE5 JUMP JUMPDEST PUSH1 0x9 PUSH1 0x0 DUP4 PUSH20 0xFFFFFFFFFFFFFFFFFFFFFFFFFFFFFFFFFFFFFFFF AND PUSH20 0xFFFFFFFFFFFFFFFFFFFFFFFFFFFFFFFFFFFFFFFF AND DUP2 MSTORE PUSH1 0x20 ADD SWAP1 DUP2 MSTORE PUSH1 0x20 ADD PUSH1 0x0 KECCAK256 SLOAD SWAP1 POP SWAP2 SWAP1 POP JUMP JUMPDEST PUSH1 0x2 SLOAD DUP2 JUMP JUMPDEST PUSH1 0x6 PUSH1 0x1 SWAP1 SLOAD SWAP1 PUSH2 0x100 EXP SWAP1 DIV PUSH20 0xFFFFFFFFFFFFFFFFFFFFFFFFFFFFFFFFFFFFFFFF AND DUP2 JUMP JUMPDEST PUSH1 0x6 PUSH1 0x0 SWAP1 SLOAD SWAP1 PUSH2 0x100 EXP SWAP1 DIV PUSH1 0xFF AND DUP2 JUMP JUMPDEST PUSH1 0x4 SLOAD DUP2 JUMP JUMPDEST PUSH1 0x0 DUP1 SLOAD SWAP1 PUSH2 0x100 EXP SWAP1 DIV PUSH20 0xFFFFFFFFFFFFFFFFFFFFFFFFFFFFFFFFFFFFFFFF AND DUP2 JUMP JUMPDEST PUSH1 0x8 PUSH1 0x0 SWAP1 SLOAD SWAP1 PUSH2 0x100 EXP SWAP1 DIV PUSH1 0xFF AND DUP2 JUMP JUMPDEST PUSH1 0x9 PUSH1 0x20 MSTORE DUP1 PUSH1 0x0 MSTORE PUSH1 0x40 PUSH1 0x0 KECCAK256 PUSH1 0x0 SWAP2 POP SWAP1 POP SLOAD DUP2 JUMP JUMPDEST PUSH2 0x4AE PUSH8 0x44890D4C1FE530AE PUSH1 0xC0 SHL PUSH2 0xCE5 JUMP JUMPDEST PUSH2 0x4C2 PUSH8 0x13B2C5C4376F4FF6 PUSH1 0xC0 SHL PUSH2 0xCE5 JUMP JUMPDEST PUSH2 0x4D6 PUSH8 0xB0ABE7C3B97F7E62 PUSH1 0xC0 SHL PUSH2 0xCE5 JUMP JUMPDEST PUSH2 0x4EA PUSH8 0x23C06DC43EA8987C PUSH1 0xC0 SHL PUSH2 0xCE5 JUMP JUMPDEST PUSH1 0x0 PUSH1 0x9 PUSH1 0x0 CALLER PUSH20 0xFFFFFFFFFFFFFFFFFFFFFFFFFFFFFFFFFFFFFFFF AND PUSH20 0xFFFFFFFFFFFFFFFFFFFFFFFFFFFFFFFFFFFFFFFF AND DUP2 MSTORE PUSH1 0x20 ADD SWAP1 DUP2 MSTORE PUSH1 0x20 ADD PUSH1 0x0 KECCAK256 SLOAD GT PUSH2 0x56C JUMPI PUSH1 0x40 MLOAD PUSH32 0x8C379A000000000000000000000000000000000000000000000000000000000 DUP2 MSTORE PUSH1 0x4 ADD PUSH2 0x563 SWAP1 PUSH2 0xE7B JUMP JUMPDEST PUSH1 0x40 MLOAD DUP1 SWAP2 SUB SWAP1 REVERT JUMPDEST PUSH2 0x580 PUSH8 0x788E996EA485C3D PUSH1 0xC0 SHL PUSH2 0xCE5 JUMP JUMPDEST PUSH2 0x594 PUSH8 0xB5056378E9583C93 PUSH1 0xC0 SHL PUSH2 0xCE5 JUMP JUMPDEST PUSH2 0x5A8 PUSH8 0xAA986C957A5DC2C5 PUSH1 0xC0 SHL PUSH2 0xCE5 JUMP JUMPDEST PUSH1 0x0 PUSH1 0x9 PUSH1 0x0 CALLER PUSH20 0xFFFFFFFFFFFFFFFFFFFFFFFFFFFFFFFFFFFFFFFF AND PUSH20 0xFFFFFFFFFFFFFFFFFFFFFFFFFFFFFFFFFFFFFFFF AND DUP2 MSTORE PUSH1 0x20 ADD SWAP1 DUP2 MSTORE PUSH1 0x20 ADD PUSH1 0x0 KECCAK256 SLOAD SWAP1 POP PUSH2 0x600 PUSH8 0xD1A6AF018F1394ED PUSH1 0xC0 SHL PUSH2 0xCE5 JUMP JUMPDEST PUSH1 0x0 PUSH1 0x9 PUSH1 0x0 CALLER PUSH20 0xFFFFFFFFFFFFFFFFFFFFFFFFFFFFFFFFFFFFFFFF AND PUSH20 0xFFFFFFFFFFFFFFFFFFFFFFFFFFFFFFFFFFFFFFFF AND DUP2 MSTORE PUSH1 0x20 ADD SWAP1 DUP2 MSTORE PUSH1 0x20 ADD PUSH1 0x0 KECCAK256 DUP2 SWAP1 SSTORE POP PUSH2 0x659 PUSH8 0x79A04ECCF33562F8 PUSH1 0xC0 SHL PUSH2 0xCE5 JUMP JUMPDEST PUSH2 0x66D PUSH8 0xF640D0B04381C969 PUSH1 0xC0 SHL PUSH2 0xCE5 JUMP JUMPDEST CALLER PUSH20 0xFFFFFFFFFFFFFFFFFFFFFFFFFFFFFFFFFFFFFFFF AND PUSH2 0x8FC DUP3 SWAP1 DUP2 ISZERO MUL SWAP1 PUSH1 0x40 MLOAD PUSH1 0x0 PUSH1 0x40 MLOAD DUP1 DUP4 SUB DUP2 DUP6 DUP9 DUP9 CALL SWAP4 POP POP POP POP ISZERO DUP1 ISZERO PUSH2 0x6B3 JUMPI RETURNDATASIZE PUSH1 0x0 DUP1 RETURNDATACOPY RETURNDATASIZE PUSH1 0x0 REVERT JUMPDEST POP POP JUMP JUMPDEST PUSH1 0x3 SLOAD DUP2 JUMP JUMPDEST PUSH1 0x1 SLOAD DUP2 JUMP JUMPDEST PUSH1 0x0 PUSH2 0x6D9 PUSH8 0x70A86FFE1FC1B458 PUSH1 0xC0 SHL PUSH2 0xCE5 JUMP JUMPDEST PUSH2 0x6ED PUSH8 0x3A60472DB2EB09AE PUSH1 0xC0 SHL PUSH2 0xCE5 JUMP JUMPDEST PUSH2 0x701 PUSH8 0xD8299A34A301A73C PUSH1 0xC0 SHL PUSH2 0xCE5 JUMP JUMPDEST PUSH1 0x5 SLOAD NUMBER LT PUSH2 0x74F JUMPI PUSH2 0x71E PUSH8 0xFA3CAE3321948739 PUSH1 0xC0 SHL PUSH2 0xCE5 JUMP JUMPDEST PUSH2 0x732 PUSH8 0x17CD5CD693D11DE6 PUSH1 0xC0 SHL PUSH2 0xCE5 JUMP JUMPDEST PUSH2 0x746 PUSH8 0xDFCCDF49B2C4B5BD PUSH1 0xC0 SHL PUSH2 0xCE5 JUMP JUMPDEST PUSH1 0x0 SWAP1 POP PUSH2 0x7E4 JUMP JUMPDEST PUSH2 0x763 PUSH8 0xD405DAD93360308F PUSH1 0xC0 SHL PUSH2 0xCE5 JUMP JUMPDEST PUSH2 0x777 PUSH8 0xA926A5D6A2E8305A PUSH1 0xC0 SHL PUSH2 0xCE5 JUMP JUMPDEST PUSH2 0x78B PUSH8 0xEF6ED43690C79000 PUSH1 0xC0 SHL PUSH2 0xCE5 JUMP JUMPDEST PUSH1 0x0 NUMBER PUSH1 0x5 SLOAD PUSH2 0x79B SWAP2 SWAP1 PUSH2 0xECA JUMP JUMPDEST SWAP1 POP PUSH2 0x7B1 PUSH8 0xD52753ADC6483746 PUSH1 0xC0 SHL PUSH2 0xCE5 JUMP JUMPDEST PUSH2 0x7C5 PUSH8 0xBB59D6FE6914869A PUSH1 0xC0 SHL PUSH2 0xCE5 JUMP JUMPDEST PUSH1 0x3 SLOAD DUP2 PUSH2 0x7D3 SWAP2 SWAP1 PUSH2 0xEFE JUMP JUMPDEST PUSH1 0x4 SLOAD PUSH2 0x7E0 SWAP2 SWAP1 PUSH2 0xECA JUMP JUMPDEST SWAP2 POP POP JUMPDEST SWAP1 JUMP JUMPDEST PUSH1 0x0 PUSH2 0x7FD PUSH8 0x295D3109FBAA415C PUSH1 0xC0 SHL PUSH2 0xCE5 JUMP JUMPDEST PUSH2 0x811 PUSH8 0xF90825364A36246F PUSH1 0xC0 SHL PUSH2 0xCE5 JUMP JUMPDEST PUSH2 0x825 PUSH8 0x9076F85EEFFD0F49 PUSH1 0xC0 SHL PUSH2 0xCE5 JUMP JUMPDEST PUSH1 0x0 PUSH2 0x82F PUSH2 0x6C3 JUMP JUMPDEST SWAP1 POP PUSH2 0x845 PUSH8 0xD8A0757994B6837 PUSH1 0xC0 SHL PUSH2 0xCE5 JUMP JUMPDEST PUSH2 0x859 PUSH8 0x6A04DFBD363DCF5E PUSH1 0xC0 SHL PUSH2 0xCE5 JUMP JUMPDEST PUSH2 0x86D PUSH8 0xE0DE2F7E3EF1EFA9 PUSH1 0xC0 SHL PUSH2 0xCE5 JUMP JUMPDEST PUSH1 0x6 PUSH1 0x0 SWAP1 SLOAD SWAP1 PUSH2 0x100 EXP SWAP1 DIV PUSH1 0xFF AND ISZERO PUSH2 0x8BD JUMPI PUSH1 0x40 MLOAD PUSH32 0x8C379A000000000000000000000000000000000000000000000000000000000 DUP2 MSTORE PUSH1 0x4 ADD PUSH2 0x8B4 SWAP1 PUSH2 0xF8C JUMP JUMPDEST PUSH1 0x40 MLOAD DUP1 SWAP2 SUB SWAP1 REVERT JUMPDEST PUSH2 0x8D1 PUSH8 0x8408073293845E87 PUSH1 0xC0 SHL PUSH2 0xCE5 JUMP JUMPDEST PUSH2 0x8E5 PUSH8 0x4FDE54871DFD7899 PUSH1 0xC0 SHL PUSH2 0xCE5 JUMP JUMPDEST PUSH2 0x8F9 PUSH8 0x11306500EAB6F107 PUSH1 0xC0 SHL PUSH2 0xCE5 JUMP JUMPDEST PUSH2 0x90D PUSH8 0x6D3F70C649090637 PUSH1 0xC0 SHL PUSH2 0xCE5 JUMP JUMPDEST PUSH1 0x0 CALLVALUE GT PUSH2 0x950 JUMPI PUSH1 0x40 MLOAD PUSH32 0x8C379A000000000000000000000000000000000000000000000000000000000 DUP2 MSTORE PUSH1 0x4 ADD PUSH2 0x947 SWAP1 PUSH2 0x101E JUMP JUMPDEST PUSH1 0x40 MLOAD DUP1 SWAP2 SUB SWAP1 REVERT JUMPDEST PUSH2 0x964 PUSH8 0xC3CEB1FA4AE57C04 PUSH1 0xC0 SHL PUSH2 0xCE5 JUMP JUMPDEST PUSH2 0x978 PUSH8 0x57F8B430F6FDABEB PUSH1 0xC0 SHL PUSH2 0xCE5 JUMP JUMPDEST PUSH2 0x98C PUSH8 0x3D38BCAC9A82FA79 PUSH1 0xC0 SHL PUSH2 0xCE5 JUMP JUMPDEST PUSH2 0x9A0 PUSH8 0xD032A39AB50F5673 PUSH1 0xC0 SHL PUSH2 0xCE5 JUMP JUMPDEST DUP1 CALLVALUE LT ISZERO PUSH2 0x9E3 JUMPI PUSH1 0x40 MLOAD PUSH32 0x8C379A000000000000000000000000000000000000000000000000000000000 DUP2 MSTORE PUSH1 0x4 ADD PUSH2 0x9DA SWAP1 PUSH2 0x10B0 JUMP JUMPDEST PUSH1 0x40 MLOAD DUP1 SWAP2 SUB SWAP1 REVERT JUMPDEST PUSH2 0x9F7 PUSH8 0xDF6B2C0E38EE4B94 PUSH1 0xC0 SHL PUSH2 0xCE5 JUMP JUMPDEST PUSH2 0xA0B PUSH8 0x3ACF3FEA1825B436 PUSH1 0xC0 SHL PUSH2 0xCE5 JUMP JUMPDEST PUSH2 0xA1F PUSH8 0xFB052596F0FEBD93 PUSH1 0xC0 SHL PUSH2 0xCE5 JUMP JUMPDEST PUSH1 0x8 PUSH1 0x0 SWAP1 SLOAD SWAP1 PUSH2 0x100 EXP SWAP1 DIV PUSH1 0xFF AND PUSH2 0xC36 JUMPI PUSH2 0xA47 PUSH8 0x64BB41DF56BD2F3D PUSH1 0xC0 SHL PUSH2 0xCE5 JUMP JUMPDEST PUSH2 0xA5B PUSH8 0x168DB6891B43322C PUSH1 0xC0 SHL PUSH2 0xCE5 JUMP JUMPDEST CALLER PUSH1 0x6 PUSH1 0x1 PUSH2 0x100 EXP DUP2 SLOAD DUP2 PUSH20 0xFFFFFFFFFFFFFFFFFFFFFFFFFFFFFFFFFFFFFFFF MUL NOT AND SWAP1 DUP4 PUSH20 0xFFFFFFFFFFFFFFFFFFFFFFFFFFFFFFFFFFFFFFFF AND MUL OR SWAP1 SSTORE POP PUSH2 0xAB0 PUSH8 0xC0B4649678A9644B PUSH1 0xC0 SHL PUSH2 0xCE5 JUMP JUMPDEST CALLVALUE PUSH1 0x7 DUP2 SWAP1 SSTORE POP PUSH2 0xACB PUSH8 0x6024CEA0B1A43113 PUSH1 0xC0 SHL PUSH2 0xCE5 JUMP JUMPDEST PUSH1 0x1 PUSH1 0x8 PUSH1 0x0 PUSH2 0x100 EXP DUP2 SLOAD DUP2 PUSH1 0xFF MUL NOT AND SWAP1 DUP4 ISZERO ISZERO MUL OR SWAP1 SSTORE POP PUSH2 0xAFA PUSH8 0xC1C83DE8B7296F78 PUSH1 0xC0 SHL PUSH2 0xCE5 JUMP JUMPDEST PUSH1 0x7 SLOAD PUSH1 0x9 PUSH1 0x0 DUP1 PUSH1 0x0 SWAP1 SLOAD SWAP1 PUSH2 0x100 EXP SWAP1 DIV PUSH20 0xFFFFFFFFFFFFFFFFFFFFFFFFFFFFFFFFFFFFFFFF AND PUSH20 0xFFFFFFFFFFFFFFFFFFFFFFFFFFFFFFFFFFFFFFFF AND PUSH20 0xFFFFFFFFFFFFFFFFFFFFFFFFFFFFFFFFFFFFFFFF AND DUP2 MSTORE PUSH1 0x20 ADD SWAP1 DUP2 MSTORE PUSH1 0x20 ADD PUSH1 0x0 KECCAK256 PUSH1 0x0 DUP3 DUP3 SLOAD PUSH2 0xB6C SWAP2 SWAP1 PUSH2 0x10D0 JUMP JUMPDEST SWAP3 POP POP DUP2 SWAP1 SSTORE POP PUSH2 0xB87 PUSH8 0xB88047AA3F878E0 PUSH1 0xC0 SHL PUSH2 0xCE5 JUMP JUMPDEST PUSH2 0xB9B PUSH8 0x11F30FDCFB917081 PUSH1 0xC0 SHL PUSH2 0xCE5 JUMP JUMPDEST PUSH1 0x0 DUP1 SLOAD SWAP1 PUSH2 0x100 EXP SWAP1 DIV PUSH20 0xFFFFFFFFFFFFFFFFFFFFFFFFFFFFFFFFFFFFFFFF AND PUSH20 0xFFFFFFFFFFFFFFFFFFFFFFFFFFFFFFFFFFFFFFFF AND PUSH2 0x8FC PUSH1 0x7 SLOAD SWAP1 DUP2 ISZERO MUL SWAP1 PUSH1 0x40 MLOAD PUSH1 0x0 PUSH1 0x40 MLOAD DUP1 DUP4 SUB DUP2 DUP6 DUP9 DUP9 CALL SWAP4 POP POP POP POP ISZERO DUP1 ISZERO PUSH2 0xC03 JUMPI RETURNDATASIZE PUSH1 0x0 DUP1 RETURNDATACOPY RETURNDATASIZE PUSH1 0x0 REVERT JUMPDEST POP PUSH2 0xC18 PUSH8 0x9493214A534F0A0F PUSH1 0xC0 SHL PUSH2 0xCE5 JUMP JUMPDEST PUSH2 0xC2C PUSH8 0xC0DAD7C5F4A63E12 PUSH1 0xC0 SHL PUSH2 0xCE5 JUMP JUMPDEST PUSH1 0x1 SWAP2 POP POP PUSH2 0xCE2 JUMP JUMPDEST PUSH2 0xC4A PUSH8 0xAD4716B14B08E9AB PUSH1 0xC0 SHL PUSH2 0xCE5 JUMP JUMPDEST PUSH2 0xC5E PUSH8 0x13CCABFE995049E0 PUSH1 0xC0 SHL PUSH2 0xCE5 JUMP JUMPDEST CALLVALUE PUSH1 0x9 PUSH1 0x0 CALLER PUSH20 0xFFFFFFFFFFFFFFFFFFFFFFFFFFFFFFFFFFFFFFFF AND PUSH20 0xFFFFFFFFFFFFFFFFFFFFFFFFFFFFFFFFFFFFFFFF AND DUP2 MSTORE PUSH1 0x20 ADD SWAP1 DUP2 MSTORE PUSH1 0x20 ADD PUSH1 0x0 KECCAK256 PUSH1 0x0 DUP3 DUP3 SLOAD PUSH2 0xCAD SWAP2 SWAP1 PUSH2 0x10D0 JUMP JUMPDEST SWAP3 POP POP DUP2 SWAP1 SSTORE POP PUSH2 0xCC8 PUSH8 0xABCC64BF5E05B4BC PUSH1 0xC0 SHL PUSH2 0xCE5 JUMP JUMPDEST PUSH2 0xCDC PUSH8 0x268EEEA5BFA59B70 PUSH1 0xC0 SHL PUSH2 0xCE5 JUMP JUMPDEST PUSH1 0x0 SWAP2 POP POP JUMPDEST SWAP1 JUMP JUMPDEST POP JUMP JUMPDEST PUSH1 0x0 DUP2 SWAP1 POP SWAP2 SWAP1 POP JUMP JUMPDEST PUSH2 0xCFB DUP2 PUSH2 0xCE8 JUMP JUMPDEST DUP3 MSTORE POP POP JUMP JUMPDEST PUSH1 0x0 PUSH1 0x20 DUP3 ADD SWAP1 POP PUSH2 0xD16 PUSH1 0x0 DUP4 ADD DUP5 PUSH2 0xCF2 JUMP JUMPDEST SWAP3 SWAP2 POP POP JUMP JUMPDEST PUSH1 0x0 DUP1 REVERT JUMPDEST PUSH1 0x0 PUSH20 0xFFFFFFFFFFFFFFFFFFFFFFFFFFFFFFFFFFFFFFFF DUP3 AND SWAP1 POP SWAP2 SWAP1 POP JUMP JUMPDEST PUSH1 0x0 PUSH2 0xD4C DUP3 PUSH2 0xD21 JUMP JUMPDEST SWAP1 POP SWAP2 SWAP1 POP JUMP JUMPDEST PUSH2 0xD5C DUP2 PUSH2 0xD41 JUMP JUMPDEST DUP2 EQ PUSH2 0xD67 JUMPI PUSH1 0x0 DUP1 REVERT JUMPDEST POP JUMP JUMPDEST PUSH1 0x0 DUP2 CALLDATALOAD SWAP1 POP PUSH2 0xD79 DUP2 PUSH2 0xD53 JUMP JUMPDEST SWAP3 SWAP2 POP POP JUMP JUMPDEST PUSH1 0x0 PUSH1 0x20 DUP3 DUP5 SUB SLT ISZERO PUSH2 0xD95 JUMPI PUSH2 0xD94 PUSH2 0xD1C JUMP JUMPDEST JUMPDEST PUSH1 0x0 PUSH2 0xDA3 DUP5 DUP3 DUP6 ADD PUSH2 0xD6A JUMP JUMPDEST SWAP2 POP POP SWAP3 SWAP2 POP POP JUMP JUMPDEST PUSH1 0x0 PUSH2 0xDB7 DUP3 PUSH2 0xD21 JUMP JUMPDEST SWAP1 POP SWAP2 SWAP1 POP JUMP JUMPDEST PUSH2 0xDC7 DUP2 PUSH2 0xDAC JUMP JUMPDEST DUP3 MSTORE POP POP JUMP JUMPDEST PUSH1 0x0 PUSH1 0x20 DUP3 ADD SWAP1 POP PUSH2 0xDE2 PUSH1 0x0 DUP4 ADD DUP5 PUSH2 0xDBE JUMP JUMPDEST SWAP3 SWAP2 POP POP JUMP JUMPDEST PUSH1 0x0 DUP2 ISZERO ISZERO SWAP1 POP SWAP2 SWAP1 POP JUMP JUMPDEST PUSH2 0xDFD DUP2 PUSH2 0xDE8 JUMP JUMPDEST DUP3 MSTORE POP POP JUMP JUMPDEST PUSH1 0x0 PUSH1 0x20 DUP3 ADD SWAP1 POP PUSH2 0xE18 PUSH1 0x0 DUP4 ADD DUP5 PUSH2 0xDF4 JUMP JUMPDEST SWAP3 SWAP2 POP POP JUMP JUMPDEST PUSH1 0x0 DUP3 DUP3 MSTORE PUSH1 0x20 DUP3 ADD SWAP1 POP SWAP3 SWAP2 POP POP JUMP JUMPDEST PUSH32 0x4E6F20726566756E6420617661696C61626C6500000000000000000000000000 PUSH1 0x0 DUP3 ADD MSTORE POP JUMP JUMPDEST PUSH1 0x0 PUSH2 0xE65 PUSH1 0x13 DUP4 PUSH2 0xE1E JUMP JUMPDEST SWAP2 POP PUSH2 0xE70 DUP3 PUSH2 0xE2F JUMP JUMPDEST PUSH1 0x20 DUP3 ADD SWAP1 POP SWAP2 SWAP1 POP JUMP JUMPDEST PUSH1 0x0 PUSH1 0x20 DUP3 ADD SWAP1 POP DUP2 DUP2 SUB PUSH1 0x0 DUP4 ADD MSTORE PUSH2 0xE94 DUP2 PUSH2 0xE58 JUMP JUMPDEST SWAP1 POP SWAP2 SWAP1 POP JUMP JUMPDEST PUSH32 0x4E487B7100000000000000000000000000000000000000000000000000000000 PUSH1 0x0 MSTORE PUSH1 0x11 PUSH1 0x4 MSTORE PUSH1 0x24 PUSH1 0x0 REVERT JUMPDEST PUSH1 0x0 PUSH2 0xED5 DUP3 PUSH2 0xCE8 JUMP JUMPDEST SWAP2 POP PUSH2 0xEE0 DUP4 PUSH2 0xCE8 JUMP JUMPDEST SWAP3 POP DUP3 DUP3 SUB SWAP1 POP DUP2 DUP2 GT ISZERO PUSH2 0xEF8 JUMPI PUSH2 0xEF7 PUSH2 0xE9B JUMP JUMPDEST JUMPDEST SWAP3 SWAP2 POP POP JUMP JUMPDEST PUSH1 0x0 PUSH2 0xF09 DUP3 PUSH2 0xCE8 JUMP JUMPDEST SWAP2 POP PUSH2 0xF14 DUP4 PUSH2 0xCE8 JUMP JUMPDEST SWAP3 POP DUP3 DUP3 MUL PUSH2 0xF22 DUP2 PUSH2 0xCE8 JUMP JUMPDEST SWAP2 POP DUP3 DUP3 DIV DUP5 EQ DUP4 ISZERO OR PUSH2 0xF39 JUMPI PUSH2 0xF38 PUSH2 0xE9B JUMP JUMPDEST JUMPDEST POP SWAP3 SWAP2 POP POP JUMP JUMPDEST PUSH32 0x41756374696F6E2068617320656E646564000000000000000000000000000000 PUSH1 0x0 DUP3 ADD MSTORE POP JUMP JUMPDEST PUSH1 0x0 PUSH2 0xF76 PUSH1 0x11 DUP4 PUSH2 0xE1E JUMP JUMPDEST SWAP2 POP PUSH2 0xF81 DUP3 PUSH2 0xF40 JUMP JUMPDEST PUSH1 0x20 DUP3 ADD SWAP1 POP SWAP2 SWAP1 POP JUMP JUMPDEST PUSH1 0x0 PUSH1 0x20 DUP3 ADD SWAP1 POP DUP2 DUP2 SUB PUSH1 0x0 DUP4 ADD MSTORE PUSH2 0xFA5 DUP2 PUSH2 0xF69 JUMP JUMPDEST SWAP1 POP SWAP2 SWAP1 POP JUMP JUMPDEST PUSH32 0x42696420616D6F756E74206D7573742062652067726561746572207468616E20 PUSH1 0x0 DUP3 ADD MSTORE PUSH32 0x3000000000000000000000000000000000000000000000000000000000000000 PUSH1 0x20 DUP3 ADD MSTORE POP JUMP JUMPDEST PUSH1 0x0 PUSH2 0x1008 PUSH1 0x21 DUP4 PUSH2 0xE1E JUMP JUMPDEST SWAP2 POP PUSH2 0x1013 DUP3 PUSH2 0xFAC JUMP JUMPDEST PUSH1 0x40 DUP3 ADD SWAP1 POP SWAP2 SWAP1 POP JUMP JUMPDEST PUSH1 0x0 PUSH1 0x20 DUP3 ADD SWAP1 POP DUP2 DUP2 SUB PUSH1 0x0 DUP4 ADD MSTORE PUSH2 0x1037 DUP2 PUSH2 0xFFB JUMP JUMPDEST SWAP1 POP SWAP2 SWAP1 POP JUMP JUMPDEST PUSH32 0x42696420616D6F756E74206973206C6F776572207468616E2063757272656E74 PUSH1 0x0 DUP3 ADD MSTORE PUSH32 0x2070726963650000000000000000000000000000000000000000000000000000 PUSH1 0x20 DUP3 ADD MSTORE POP JUMP JUMPDEST PUSH1 0x0 PUSH2 0x109A PUSH1 0x26 DUP4 PUSH2 0xE1E JUMP JUMPDEST SWAP2 POP PUSH2 0x10A5 DUP3 PUSH2 0x103E JUMP JUMPDEST PUSH1 0x40 DUP3 ADD SWAP1 POP SWAP2 SWAP1 POP JUMP JUMPDEST PUSH1 0x0 PUSH1 0x20 DUP3 ADD SWAP1 POP DUP2 DUP2 SUB PUSH1 0x0 DUP4 ADD MSTORE PUSH2 0x10C9 DUP2 PUSH2 0x108D JUMP JUMPDEST SWAP1 POP SWAP2 SWAP1 POP JUMP JUMPDEST PUSH1 0x0 PUSH2 0x10DB DUP3 PUSH2 0xCE8 JUMP JUMPDEST SWAP2 POP PUSH2 0x10E6 DUP4 PUSH2 0xCE8 JUMP JUMPDEST SWAP3 POP DUP3 DUP3 ADD SWAP1 POP DUP1 DUP3 GT ISZERO PUSH2 0x10FE JUMPI PUSH2 0x10FD PUSH2 0xE9B JUMP JUMPDEST JUMPDEST SWAP3 SWAP2 POP POP JUMP INVALID LOG2 PUSH5 0x6970667358 0x22 SLT KECCAK256 SELFDESTRUCT 0xCD ADDRESS LOG4 PUSH16 0x4FAEB28653DB0C17BF7D4F675740B7EE 0xE9 0xB5 ADD 0xBB DUP16 SHL 0xC5 0x21 NOT SWAP3 PUSH23 0x64736F6C63430008120033000000000000000000000000 "},"methodIdentifiers":{"auctionEndBlock()":"07d52fa8","auctionStartingPrice()":"8b32778f","bidAmountsByAddress(address)":"aceffdc6","claimRefund()":"b5545a3c","getBidAmount(address)":"13b9b598","getCurrentPrice()":"eb91d37e","initialBidAmount()":"05faab3e","initialBidder()":"3882ce8e","isAuctionOver()":"5f5ecf36","numBlocksAuctionOpen()":"3103ea62","offerPriceDecrement()":"d3642a88","owner()":"8da5cb5b","placeBid()":"ecfc7ecc","receivedValidBid()":"9725e6b2","reservePrice()":"db2e1eed"}}}}}