{"contracts/BasicDutchAuction.sol":{"BasicDutchAuction":{"abi":[{"inputs":[{"internalType":"uint256","name":"_minimumAcceptablePrice","type":"uint256"},{"internalType":"uint256","name":"_auctionDurationInBlocks","type":"uint256"},{"internalType":"uint256","name":"_priceDecrementPerBlock","type":"uint256"}],"stateMutability":"nonpayable","type":"constructor"},{"anonymous":false,"inputs":[{"indexed":false,"internalType":"address","name":"winner","type":"address"},{"indexed":false,"internalType":"uint256","name":"amount","type":"uint256"}],"name":"AuctionCompleted","type":"event"},{"inputs":[],"name":"auctionCreator","outputs":[{"internalType":"address payable","name":"","type":"address"}],"stateMutability":"view","type":"function"},{"inputs":[],"name":"auctionDurationInBlocks","outputs":[{"internalType":"uint256","name":"","type":"uint256"}],"stateMutability":"view","type":"function"},{"inputs":[],"name":"auctionEndBlockNumber","outputs":[{"internalType":"uint256","name":"","type":"uint256"}],"stateMutability":"view","type":"function"},{"inputs":[],"name":"auctionEnded","outputs":[{"internalType":"bool","name":"","type":"bool"}],"stateMutability":"view","type":"function"},{"inputs":[{"internalType":"address","name":"","type":"address"}],"name":"bidsByAddress","outputs":[{"internalType":"uint256","name":"","type":"uint256"}],"stateMutability":"view","type":"function"},{"inputs":[{"internalType":"address","name":"account","type":"address"}],"name":"getBalance","outputs":[{"internalType":"uint256","name":"","type":"uint256"}],"stateMutability":"view","type":"function"},{"inputs":[],"name":"getCurrentAuctionPrice","outputs":[{"internalType":"uint256","name":"","type":"uint256"}],"stateMutability":"view","type":"function"},{"inputs":[],"name":"hasReceivedValidBid","outputs":[{"internalType":"bool","name":"","type":"bool"}],"stateMutability":"view","type":"function"},{"inputs":[],"name":"initialBidValue","outputs":[{"internalType":"uint256","name":"","type":"uint256"}],"stateMutability":"view","type":"function"},{"inputs":[],"name":"initialParticipant","outputs":[{"internalType":"address payable","name":"","type":"address"}],"stateMutability":"view","type":"function"},{"inputs":[],"name":"minimumAcceptablePrice","outputs":[{"internalType":"uint256","name":"","type":"uint256"}],"stateMutability":"view","type":"function"},{"inputs":[],"name":"placeBid","outputs":[{"internalType":"bool","name":"","type":"bool"}],"stateMutability":"payable","type":"function"},{"inputs":[],"name":"priceDecrementPerBlock","outputs":[{"internalType":"uint256","name":"","type":"uint256"}],"stateMutability":"view","type":"function"},{"inputs":[],"name":"retrieveRefund","outputs":[],"stateMutability":"nonpayable","type":"function"},{"inputs":[],"name":"startPrice","outputs":[{"internalType":"uint256","name":"","type":"uint256"}],"stateMutability":"view","type":"function"}],"evm":{"bytecode":{"linkReferences":{},"object":"60806040523480156200001157600080fd5b506040516200153d3803806200153d8339818101604052810190620000379190620002c9565b62000053676e6bfab8e5f862ae60c01b6200028660201b60201c565b6200006f67ac474e2aecd4b86960c01b6200028660201b60201c565b336000806101000a81548173ffffffffffffffffffffffffffffffffffffffff021916908373ffffffffffffffffffffffffffffffffffffffff160217905550620000cb67d20d6ef7b757fc2660c01b6200028660201b60201c565b82600181905550620000ee6754acda06e5ac6d6660c01b6200028660201b60201c565b816002819055506200011167b4c0a2e05f252f9160c01b6200028660201b60201c565b806003819055506200013467d1161519495f1afe60c01b6200028660201b60201c565b60035460025462000146919062000354565b6001546200015591906200039f565b6004819055506200017767095c6577e8cabf6c60c01b6200028660201b60201c565b600254436200018791906200039f565b600581905550620001a9679c4ed189e007ce1e60c01b6200028660201b60201c565b6000600660006101000a81548160ff021916908315150217905550620001e067295d59e6557fba5460c01b6200028660201b60201c565b6000600860006101000a81548160ff0219169083151502179055506200021767c5b433964a87283760c01b6200028660201b60201c565b6000600660016101000a81548173ffffffffffffffffffffffffffffffffffffffff021916908373ffffffffffffffffffffffffffffffffffffffff1602179055506200027567cf6d265f0c79df5660c01b6200028660201b60201c565b6000600781905550505050620003da565b50565b600080fd5b6000819050919050565b620002a3816200028e565b8114620002af57600080fd5b50565b600081519050620002c38162000298565b92915050565b600080600060608486031215620002e557620002e462000289565b5b6000620002f586828701620002b2565b93505060206200030886828701620002b2565b92505060406200031b86828701620002b2565b9150509250925092565b7f4e487b7100000000000000000000000000000000000000000000000000000000600052601160045260246000fd5b600062000361826200028e565b91506200036e836200028e565b92508282026200037e816200028e565b9150828204841483151762000398576200039762000325565b5b5092915050565b6000620003ac826200028e565b9150620003b9836200028e565b9250828201905080821115620003d457620003d362000325565b5b92915050565b61115380620003ea6000396000f3fe6080604052600436106100e85760003560e01c8063cbd330eb1161008a578063ef76347911610059578063ef763479146102b7578063f1a9af89146102e2578063f5abdb621461030d578063f8b2cb4f14610338576100e8565b8063cbd330eb14610206578063e0cd584b14610243578063e99b75ad1461026e578063ecfc7ecc14610299576100e8565b806354ddd5d6116100c657806354ddd5d61461016e578063677f8c141461018557806386433374146101b0578063bf41ab3f146101db576100e8565b80630b738946146100ed5780634e0aa4121461011857806351c7115b14610143575b600080fd5b3480156100f957600080fd5b50610102610375565b60405161010f9190610cf4565b60405180910390f35b34801561012457600080fd5b5061012d61037b565b60405161013a9190610cf4565b60405180910390f35b34801561014f57600080fd5b50610158610381565b6040516101659190610cf4565b60405180910390f35b34801561017a57600080fd5b506101836104a5565b005b34801561019157600080fd5b5061019a6106c2565b6040516101a79190610d50565b60405180910390f35b3480156101bc57600080fd5b506101c56106e6565b6040516101d29190610d86565b60405180910390f35b3480156101e757600080fd5b506101f06106f9565b6040516101fd9190610cf4565b60405180910390f35b34801561021257600080fd5b5061022d60048036038101906102289190610de4565b6106ff565b60405161023a9190610cf4565b60405180910390f35b34801561024f57600080fd5b50610258610717565b6040516102659190610cf4565b60405180910390f35b34801561027a57600080fd5b5061028361071d565b6040516102909190610d50565b60405180910390f35b6102a1610743565b6040516102ae9190610d86565b60405180910390f35b3480156102c357600080fd5b506102cc610c34565b6040516102d99190610cf4565b60405180910390f35b3480156102ee57600080fd5b506102f7610c3a565b6040516103049190610cf4565b60405180910390f35b34801561031957600080fd5b50610322610c40565b60405161032f9190610d86565b60405180910390f35b34801561034457600080fd5b5061035f600480360381019061035a9190610de4565b610c53565b60405161036c9190610cf4565b60405180910390f35b60055481565b60035481565b60006103976757ae74521dc30a5d60c01b610cd8565b6103ab6772adb751bdb0a98a60c01b610cd8565b6103bf6737a19d6d76e9e69160c01b610cd8565b600554431061040d576103dc67a611df2014cca56b60c01b610cd8565b6103f06768ef772ff79a9f0860c01b610cd8565b610404674a53136b2d7148ce60c01b610cd8565b600090506104a2565b61042167194dfa7dff97fea160c01b610cd8565b61043567a058549da037177060c01b610cd8565b61044967d0650cbd20baea0260c01b610cd8565b6000436005546104599190610e40565b905061046f67db55741d290899e660c01b610cd8565b61048367c10056326256d77760c01b610cd8565b600354816104919190610e74565b60045461049e9190610e40565b9150505b90565b6104b9673ae295df7b85571860c01b610cd8565b6104cd67b3b77c57124f32f860c01b610cd8565b6104e16768cb3d10f0e4eda260c01b610cd8565b6104f5673a52bcf535776d0560c01b610cd8565b6000600960003373ffffffffffffffffffffffffffffffffffffffff1673ffffffffffffffffffffffffffffffffffffffff1681526020019081526020016000205411610577576040517f08c379a000000000000000000000000000000000000000000000000000000000815260040161056e90610f39565b60405180910390fd5b61058b67fd232a52291bcda760c01b610cd8565b61059f672fed32f78069e03760c01b610cd8565b6105b367bbd293b4ff629c2360c01b610cd8565b6000600960003373ffffffffffffffffffffffffffffffffffffffff1673ffffffffffffffffffffffffffffffffffffffff16815260200190815260200160002054905061060b670f4e1b5f75ac2c1f60c01b610cd8565b6000600960003373ffffffffffffffffffffffffffffffffffffffff1673ffffffffffffffffffffffffffffffffffffffff16815260200190815260200160002081905550610664678383411590e4fb0d60c01b610cd8565b61067867d2461fa2fb9c460560c01b610cd8565b3373ffffffffffffffffffffffffffffffffffffffff166108fc829081150290604051600060405180830381858888f193505050501580156106be573d6000803e3d6000fd5b5050565b60008054906101000a900473ffffffffffffffffffffffffffffffffffffffff1681565b600660009054906101000a900460ff1681565b60015481565b60096020528060005260406000206000915090505481565b60075481565b600660019054906101000a900473ffffffffffffffffffffffffffffffffffffffff1681565b6000610759679d5fbd25bf67327560c01b610cd8565b61076d67bb8e99c86ac3c0db60c01b610cd8565b610781679c8584b465c7f87060c01b610cd8565b600061078b610381565b90506107a167fb7595f007faacca60c01b610cd8565b6107b5677c7e608c0b34da6c60c01b610cd8565b6107c9674ff62f23bae3aa4360c01b610cd8565b6000811161080c576040517f08c379a000000000000000000000000000000000000000000000000000000000815260040161080390610fa5565b60405180910390fd5b61082067ef0292dfb623026360c01b610cd8565b610834679a011a157a79e1f160c01b610cd8565b610848670989a285ab71772760c01b610cd8565b61085c678ec9f94ba27fff9760c01b610cd8565b6000341161089f576040517f08c379a000000000000000000000000000000000000000000000000000000000815260040161089690611037565b60405180910390fd5b6108b367aa79069bb48b4fe660c01b610cd8565b6108c767f92dfccd58bacfe260c01b610cd8565b6108db67175d70cde081445160c01b610cd8565b6108ef67b409833044ca92b260c01b610cd8565b80341015610932576040517f08c379a0000000000000000000000000000000000000000000000000000000008152600401610929906110c9565b60405180910390fd5b610946671b834c8547f66ec360c01b610cd8565b61095a671c4c22a6a47481c560c01b610cd8565b61096e67e6ca057ed3d7cd6d60c01b610cd8565b600860009054906101000a900460ff16610b855761099667beedb9708ff7274560c01b610cd8565b6109aa67c1740b89ddb0950260c01b610cd8565b33600660016101000a81548173ffffffffffffffffffffffffffffffffffffffff021916908373ffffffffffffffffffffffffffffffffffffffff1602179055506109ff674e9e450508a1fd6160c01b610cd8565b34600781905550610a1a67ac671d63da6736f960c01b610cd8565b6001600860006101000a81548160ff021916908315150217905550610a4967407ff454a5dd230360c01b610cd8565b600754600960008060009054906101000a900473ffffffffffffffffffffffffffffffffffffffff1673ffffffffffffffffffffffffffffffffffffffff1673ffffffffffffffffffffffffffffffffffffffff1681526020019081526020016000206000828254610abb91906110e9565b92505081905550610ad6674a5b19121c4baf5e60c01b610cd8565b610aea6798d79bca8f588a8f60c01b610cd8565b60008054906101000a900473ffffffffffffffffffffffffffffffffffffffff1673ffffffffffffffffffffffffffffffffffffffff166108fc6007549081150290604051600060405180830381858888f19350505050158015610b52573d6000803e3d6000fd5b50610b676757d3746ecd41a87a60c01b610cd8565b610b7b676e88b98b7c031ec460c01b610cd8565b6001915050610c31565b610b99670fe88d3dbf7abf7f60c01b610cd8565b610bad67cac6f981593d4fcc60c01b610cd8565b34600960003373ffffffffffffffffffffffffffffffffffffffff1673ffffffffffffffffffffffffffffffffffffffff1681526020019081526020016000206000828254610bfc91906110e9565b92505081905550610c1767b9c921b6c89cc8ee60c01b610cd8565b610c2b67e489b04b795ef96c60c01b610cd8565b60009150505b90565b60025481565b60045481565b600860009054906101000a900460ff1681565b6000610c6967540e7f33a3d69e6b60c01b610cd8565b610c7d67af94bd167851dccc60c01b610cd8565b610c91676c44be705788bbda60c01b610cd8565b600960008373ffffffffffffffffffffffffffffffffffffffff1673ffffffffffffffffffffffffffffffffffffffff168152602001908152602001600020549050919050565b50565b6000819050919050565b610cee81610cdb565b82525050565b6000602082019050610d096000830184610ce5565b92915050565b600073ffffffffffffffffffffffffffffffffffffffff82169050919050565b6000610d3a82610d0f565b9050919050565b610d4a81610d2f565b82525050565b6000602082019050610d656000830184610d41565b92915050565b60008115159050919050565b610d8081610d6b565b82525050565b6000602082019050610d9b6000830184610d77565b92915050565b600080fd5b6000610db182610d0f565b9050919050565b610dc181610da6565b8114610dcc57600080fd5b50565b600081359050610dde81610db8565b92915050565b600060208284031215610dfa57610df9610da1565b5b6000610e0884828501610dcf565b91505092915050565b7f4e487b7100000000000000000000000000000000000000000000000000000000600052601160045260246000fd5b6000610e4b82610cdb565b9150610e5683610cdb565b9250828203905081811115610e6e57610e6d610e11565b5b92915050565b6000610e7f82610cdb565b9150610e8a83610cdb565b9250828202610e9881610cdb565b91508282048414831517610eaf57610eae610e11565b5b5092915050565b600082825260208201905092915050565b7f4e6f20726566756e6420617661696c61626c6520666f7220746865206163636f60008201527f756e740000000000000000000000000000000000000000000000000000000000602082015250565b6000610f23602383610eb6565b9150610f2e82610ec7565b604082019050919050565b60006020820190508181036000830152610f5281610f16565b9050919050565b7f41756374696f6e2068617320636f6e636c756465640000000000000000000000600082015250565b6000610f8f601583610eb6565b9150610f9a82610f59565b602082019050919050565b60006020820190508181036000830152610fbe81610f82565b9050919050565b7f5375626d6974746564206269642076616c7565206d757374206265206772656160008201527f746572207468616e203000000000000000000000000000000000000000000000602082015250565b6000611021602a83610eb6565b915061102c82610fc5565b604082019050919050565b6000602082019050818103600083015261105081611014565b9050919050565b7f5375626d6974746564206269642076616c7565206973206c6f7765722074686160008201527f6e207468652063757272656e7420707269636500000000000000000000000000602082015250565b60006110b3603383610eb6565b91506110be82611057565b604082019050919050565b600060208201905081810360008301526110e2816110a6565b9050919050565b60006110f482610cdb565b91506110ff83610cdb565b925082820190508082111561111757611116610e11565b5b9291505056fea2646970667358221220d71e296fc4571903223c2b697e0b39099a2d6a660a33d8c0fc8a29e9159ad98f64736f6c63430008120033","opcodes":"PUSH1 0x80 PUSH1 0x40 MSTORE CALLVALUE DUP1 ISZERO PUSH3 0x11 JUMPI PUSH1 0x0 DUP1 REVERT JUMPDEST POP PUSH1 0x40 MLOAD PUSH3 0x153D CODESIZE SUB DUP1 PUSH3 0x153D DUP4 CODECOPY DUP2 DUP2 ADD PUSH1 0x40 MSTORE DUP2 ADD SWAP1 PUSH3 0x37 SWAP2 SWAP1 PUSH3 0x2C9 JUMP JUMPDEST PUSH3 0x53 PUSH8 0x6E6BFAB8E5F862AE PUSH1 0xC0 SHL PUSH3 0x286 PUSH1 0x20 SHL PUSH1 0x20 SHR JUMP JUMPDEST PUSH3 0x6F PUSH8 0xAC474E2AECD4B869 PUSH1 0xC0 SHL PUSH3 0x286 PUSH1 0x20 SHL PUSH1 0x20 SHR JUMP JUMPDEST CALLER PUSH1 0x0 DUP1 PUSH2 0x100 EXP DUP2 SLOAD DUP2 PUSH20 0xFFFFFFFFFFFFFFFFFFFFFFFFFFFFFFFFFFFFFFFF MUL NOT AND SWAP1 DUP4 PUSH20 0xFFFFFFFFFFFFFFFFFFFFFFFFFFFFFFFFFFFFFFFF AND MUL OR SWAP1 SSTORE POP PUSH3 0xCB PUSH8 0xD20D6EF7B757FC26 PUSH1 0xC0 SHL PUSH3 0x286 PUSH1 0x20 SHL PUSH1 0x20 SHR JUMP JUMPDEST DUP3 PUSH1 0x1 DUP2 SWAP1 SSTORE POP PUSH3 0xEE PUSH8 0x54ACDA06E5AC6D66 PUSH1 0xC0 SHL PUSH3 0x286 PUSH1 0x20 SHL PUSH1 0x20 SHR JUMP JUMPDEST DUP2 PUSH1 0x2 DUP2 SWAP1 SSTORE POP PUSH3 0x111 PUSH8 0xB4C0A2E05F252F91 PUSH1 0xC0 SHL PUSH3 0x286 PUSH1 0x20 SHL PUSH1 0x20 SHR JUMP JUMPDEST DUP1 PUSH1 0x3 DUP2 SWAP1 SSTORE POP PUSH3 0x134 PUSH8 0xD1161519495F1AFE PUSH1 0xC0 SHL PUSH3 0x286 PUSH1 0x20 SHL PUSH1 0x20 SHR JUMP JUMPDEST PUSH1 0x3 SLOAD PUSH1 0x2 SLOAD PUSH3 0x146 SWAP2 SWAP1 PUSH3 0x354 JUMP JUMPDEST PUSH1 0x1 SLOAD PUSH3 0x155 SWAP2 SWAP1 PUSH3 0x39F JUMP JUMPDEST PUSH1 0x4 DUP2 SWAP1 SSTORE POP PUSH3 0x177 PUSH8 0x95C6577E8CABF6C PUSH1 0xC0 SHL PUSH3 0x286 PUSH1 0x20 SHL PUSH1 0x20 SHR JUMP JUMPDEST PUSH1 0x2 SLOAD NUMBER PUSH3 0x187 SWAP2 SWAP1 PUSH3 0x39F JUMP JUMPDEST PUSH1 0x5 DUP2 SWAP1 SSTORE POP PUSH3 0x1A9 PUSH8 0x9C4ED189E007CE1E PUSH1 0xC0 SHL PUSH3 0x286 PUSH1 0x20 SHL PUSH1 0x20 SHR JUMP JUMPDEST PUSH1 0x0 PUSH1 0x6 PUSH1 0x0 PUSH2 0x100 EXP DUP2 SLOAD DUP2 PUSH1 0xFF MUL NOT AND SWAP1 DUP4 ISZERO ISZERO MUL OR SWAP1 SSTORE POP PUSH3 0x1E0 PUSH8 0x295D59E6557FBA54 PUSH1 0xC0 SHL PUSH3 0x286 PUSH1 0x20 SHL PUSH1 0x20 SHR JUMP JUMPDEST PUSH1 0x0 PUSH1 0x8 PUSH1 0x0 PUSH2 0x100 EXP DUP2 SLOAD DUP2 PUSH1 0xFF MUL NOT AND SWAP1 DUP4 ISZERO ISZERO MUL OR SWAP1 SSTORE POP PUSH3 0x217 PUSH8 0xC5B433964A872837 PUSH1 0xC0 SHL PUSH3 0x286 PUSH1 0x20 SHL PUSH1 0x20 SHR JUMP JUMPDEST PUSH1 0x0 PUSH1 0x6 PUSH1 0x1 PUSH2 0x100 EXP DUP2 SLOAD DUP2 PUSH20 0xFFFFFFFFFFFFFFFFFFFFFFFFFFFFFFFFFFFFFFFF MUL NOT AND SWAP1 DUP4 PUSH20 0xFFFFFFFFFFFFFFFFFFFFFFFFFFFFFFFFFFFFFFFF AND MUL OR SWAP1 SSTORE POP PUSH3 0x275 PUSH8 0xCF6D265F0C79DF56 PUSH1 0xC0 SHL PUSH3 0x286 PUSH1 0x20 SHL PUSH1 0x20 SHR JUMP JUMPDEST PUSH1 0x0 PUSH1 0x7 DUP2 SWAP1 SSTORE POP POP POP POP PUSH3 0x3DA JUMP JUMPDEST POP JUMP JUMPDEST PUSH1 0x0 DUP1 REVERT JUMPDEST PUSH1 0x0 DUP2 SWAP1 POP SWAP2 SWAP1 POP JUMP JUMPDEST PUSH3 0x2A3 DUP2 PUSH3 0x28E JUMP JUMPDEST DUP2 EQ PUSH3 0x2AF JUMPI PUSH1 0x0 DUP1 REVERT JUMPDEST POP JUMP JUMPDEST PUSH1 0x0 DUP2 MLOAD SWAP1 POP PUSH3 0x2C3 DUP2 PUSH3 0x298 JUMP JUMPDEST SWAP3 SWAP2 POP POP JUMP JUMPDEST PUSH1 0x0 DUP1 PUSH1 0x0 PUSH1 0x60 DUP5 DUP7 SUB SLT ISZERO PUSH3 0x2E5 JUMPI PUSH3 0x2E4 PUSH3 0x289 JUMP JUMPDEST JUMPDEST PUSH1 0x0 PUSH3 0x2F5 DUP7 DUP3 DUP8 ADD PUSH3 0x2B2 JUMP JUMPDEST SWAP4 POP POP PUSH1 0x20 PUSH3 0x308 DUP7 DUP3 DUP8 ADD PUSH3 0x2B2 JUMP JUMPDEST SWAP3 POP POP PUSH1 0x40 PUSH3 0x31B DUP7 DUP3 DUP8 ADD PUSH3 0x2B2 JUMP JUMPDEST SWAP2 POP POP SWAP3 POP SWAP3 POP SWAP3 JUMP JUMPDEST PUSH32 0x4E487B7100000000000000000000000000000000000000000000000000000000 PUSH1 0x0 MSTORE PUSH1 0x11 PUSH1 0x4 MSTORE PUSH1 0x24 PUSH1 0x0 REVERT JUMPDEST PUSH1 0x0 PUSH3 0x361 DUP3 PUSH3 0x28E JUMP JUMPDEST SWAP2 POP PUSH3 0x36E DUP4 PUSH3 0x28E JUMP JUMPDEST SWAP3 POP DUP3 DUP3 MUL PUSH3 0x37E DUP2 PUSH3 0x28E JUMP JUMPDEST SWAP2 POP DUP3 DUP3 DIV DUP5 EQ DUP4 ISZERO OR PUSH3 0x398 JUMPI PUSH3 0x397 PUSH3 0x325 JUMP JUMPDEST JUMPDEST POP SWAP3 SWAP2 POP POP JUMP JUMPDEST PUSH1 0x0 PUSH3 0x3AC DUP3 PUSH3 0x28E JUMP JUMPDEST SWAP2 POP PUSH3 0x3B9 DUP4 PUSH3 0x28E JUMP JUMPDEST SWAP3 POP DUP3 DUP3 ADD SWAP1 POP DUP1 DUP3 GT ISZERO PUSH3 0x3D4 JUMPI PUSH3 0x3D3 PUSH3 0x325 JUMP JUMPDEST JUMPDEST SWAP3 SWAP2 POP POP JUMP JUMPDEST PUSH2 0x1153 DUP1 PUSH3 0x3EA PUSH1 0x0 CODECOPY PUSH1 0x0 RETURN INVALID PUSH1 0x80 PUSH1 0x40 MSTORE PUSH1 0x4 CALLDATASIZE LT PUSH2 0xE8 JUMPI PUSH1 0x0 CALLDATALOAD PUSH1 0xE0 SHR DUP1 PUSH4 0xCBD330EB GT PUSH2 0x8A JUMPI DUP1 PUSH4 0xEF763479 GT PUSH2 0x59 JUMPI DUP1 PUSH4 0xEF763479 EQ PUSH2 0x2B7 JUMPI DUP1 PUSH4 0xF1A9AF89 EQ PUSH2 0x2E2 JUMPI DUP1 PUSH4 0xF5ABDB62 EQ PUSH2 0x30D JUMPI DUP1 PUSH4 0xF8B2CB4F EQ PUSH2 0x338 JUMPI PUSH2 0xE8 JUMP JUMPDEST DUP1 PUSH4 0xCBD330EB EQ PUSH2 0x206 JUMPI DUP1 PUSH4 0xE0CD584B EQ PUSH2 0x243 JUMPI DUP1 PUSH4 0xE99B75AD EQ PUSH2 0x26E JUMPI DUP1 PUSH4 0xECFC7ECC EQ PUSH2 0x299 JUMPI PUSH2 0xE8 JUMP JUMPDEST DUP1 PUSH4 0x54DDD5D6 GT PUSH2 0xC6 JUMPI DUP1 PUSH4 0x54DDD5D6 EQ PUSH2 0x16E JUMPI DUP1 PUSH4 0x677F8C14 EQ PUSH2 0x185 JUMPI DUP1 PUSH4 0x86433374 EQ PUSH2 0x1B0 JUMPI DUP1 PUSH4 0xBF41AB3F EQ PUSH2 0x1DB JUMPI PUSH2 0xE8 JUMP JUMPDEST DUP1 PUSH4 0xB738946 EQ PUSH2 0xED JUMPI DUP1 PUSH4 0x4E0AA412 EQ PUSH2 0x118 JUMPI DUP1 PUSH4 0x51C7115B EQ PUSH2 0x143 JUMPI JUMPDEST PUSH1 0x0 DUP1 REVERT JUMPDEST CALLVALUE DUP1 ISZERO PUSH2 0xF9 JUMPI PUSH1 0x0 DUP1 REVERT JUMPDEST POP PUSH2 0x102 PUSH2 0x375 JUMP JUMPDEST PUSH1 0x40 MLOAD PUSH2 0x10F SWAP2 SWAP1 PUSH2 0xCF4 JUMP JUMPDEST PUSH1 0x40 MLOAD DUP1 SWAP2 SUB SWAP1 RETURN JUMPDEST CALLVALUE DUP1 ISZERO PUSH2 0x124 JUMPI PUSH1 0x0 DUP1 REVERT JUMPDEST POP PUSH2 0x12D PUSH2 0x37B JUMP JUMPDEST PUSH1 0x40 MLOAD PUSH2 0x13A SWAP2 SWAP1 PUSH2 0xCF4 JUMP JUMPDEST PUSH1 0x40 MLOAD DUP1 SWAP2 SUB SWAP1 RETURN JUMPDEST CALLVALUE DUP1 ISZERO PUSH2 0x14F JUMPI PUSH1 0x0 DUP1 REVERT JUMPDEST POP PUSH2 0x158 PUSH2 0x381 JUMP JUMPDEST PUSH1 0x40 MLOAD PUSH2 0x165 SWAP2 SWAP1 PUSH2 0xCF4 JUMP JUMPDEST PUSH1 0x40 MLOAD DUP1 SWAP2 SUB SWAP1 RETURN JUMPDEST CALLVALUE DUP1 ISZERO PUSH2 0x17A JUMPI PUSH1 0x0 DUP1 REVERT JUMPDEST POP PUSH2 0x183 PUSH2 0x4A5 JUMP JUMPDEST STOP JUMPDEST CALLVALUE DUP1 ISZERO PUSH2 0x191 JUMPI PUSH1 0x0 DUP1 REVERT JUMPDEST POP PUSH2 0x19A PUSH2 0x6C2 JUMP JUMPDEST PUSH1 0x40 MLOAD PUSH2 0x1A7 SWAP2 SWAP1 PUSH2 0xD50 JUMP JUMPDEST PUSH1 0x40 MLOAD DUP1 SWAP2 SUB SWAP1 RETURN JUMPDEST CALLVALUE DUP1 ISZERO PUSH2 0x1BC JUMPI PUSH1 0x0 DUP1 REVERT JUMPDEST POP PUSH2 0x1C5 PUSH2 0x6E6 JUMP JUMPDEST PUSH1 0x40 MLOAD PUSH2 0x1D2 SWAP2 SWAP1 PUSH2 0xD86 JUMP JUMPDEST PUSH1 0x40 MLOAD DUP1 SWAP2 SUB SWAP1 RETURN JUMPDEST CALLVALUE DUP1 ISZERO PUSH2 0x1E7 JUMPI PUSH1 0x0 DUP1 REVERT JUMPDEST POP PUSH2 0x1F0 PUSH2 0x6F9 JUMP JUMPDEST PUSH1 0x40 MLOAD PUSH2 0x1FD SWAP2 SWAP1 PUSH2 0xCF4 JUMP JUMPDEST PUSH1 0x40 MLOAD DUP1 SWAP2 SUB SWAP1 RETURN JUMPDEST CALLVALUE DUP1 ISZERO PUSH2 0x212 JUMPI PUSH1 0x0 DUP1 REVERT JUMPDEST POP PUSH2 0x22D PUSH1 0x4 DUP1 CALLDATASIZE SUB DUP2 ADD SWAP1 PUSH2 0x228 SWAP2 SWAP1 PUSH2 0xDE4 JUMP JUMPDEST PUSH2 0x6FF JUMP JUMPDEST PUSH1 0x40 MLOAD PUSH2 0x23A SWAP2 SWAP1 PUSH2 0xCF4 JUMP JUMPDEST PUSH1 0x40 MLOAD DUP1 SWAP2 SUB SWAP1 RETURN JUMPDEST CALLVALUE DUP1 ISZERO PUSH2 0x24F JUMPI PUSH1 0x0 DUP1 REVERT JUMPDEST POP PUSH2 0x258 PUSH2 0x717 JUMP JUMPDEST PUSH1 0x40 MLOAD PUSH2 0x265 SWAP2 SWAP1 PUSH2 0xCF4 JUMP JUMPDEST PUSH1 0x40 MLOAD DUP1 SWAP2 SUB SWAP1 RETURN JUMPDEST CALLVALUE DUP1 ISZERO PUSH2 0x27A JUMPI PUSH1 0x0 DUP1 REVERT JUMPDEST POP PUSH2 0x283 PUSH2 0x71D JUMP JUMPDEST PUSH1 0x40 MLOAD PUSH2 0x290 SWAP2 SWAP1 PUSH2 0xD50 JUMP JUMPDEST PUSH1 0x40 MLOAD DUP1 SWAP2 SUB SWAP1 RETURN JUMPDEST PUSH2 0x2A1 PUSH2 0x743 JUMP JUMPDEST PUSH1 0x40 MLOAD PUSH2 0x2AE SWAP2 SWAP1 PUSH2 0xD86 JUMP JUMPDEST PUSH1 0x40 MLOAD DUP1 SWAP2 SUB SWAP1 RETURN JUMPDEST CALLVALUE DUP1 ISZERO PUSH2 0x2C3 JUMPI PUSH1 0x0 DUP1 REVERT JUMPDEST POP PUSH2 0x2CC PUSH2 0xC34 JUMP JUMPDEST PUSH1 0x40 MLOAD PUSH2 0x2D9 SWAP2 SWAP1 PUSH2 0xCF4 JUMP JUMPDEST PUSH1 0x40 MLOAD DUP1 SWAP2 SUB SWAP1 RETURN JUMPDEST CALLVALUE DUP1 ISZERO PUSH2 0x2EE JUMPI PUSH1 0x0 DUP1 REVERT JUMPDEST POP PUSH2 0x2F7 PUSH2 0xC3A JUMP JUMPDEST PUSH1 0x40 MLOAD PUSH2 0x304 SWAP2 SWAP1 PUSH2 0xCF4 JUMP JUMPDEST PUSH1 0x40 MLOAD DUP1 SWAP2 SUB SWAP1 RETURN JUMPDEST CALLVALUE DUP1 ISZERO PUSH2 0x319 JUMPI PUSH1 0x0 DUP1 REVERT JUMPDEST POP PUSH2 0x322 PUSH2 0xC40 JUMP JUMPDEST PUSH1 0x40 MLOAD PUSH2 0x32F SWAP2 SWAP1 PUSH2 0xD86 JUMP JUMPDEST PUSH1 0x40 MLOAD DUP1 SWAP2 SUB SWAP1 RETURN JUMPDEST CALLVALUE DUP1 ISZERO PUSH2 0x344 JUMPI PUSH1 0x0 DUP1 REVERT JUMPDEST POP PUSH2 0x35F PUSH1 0x4 DUP1 CALLDATASIZE SUB DUP2 ADD SWAP1 PUSH2 0x35A SWAP2 SWAP1 PUSH2 0xDE4 JUMP JUMPDEST PUSH2 0xC53 JUMP JUMPDEST PUSH1 0x40 MLOAD PUSH2 0x36C SWAP2 SWAP1 PUSH2 0xCF4 JUMP JUMPDEST PUSH1 0x40 MLOAD DUP1 SWAP2 SUB SWAP1 RETURN JUMPDEST PUSH1 0x5 SLOAD DUP2 JUMP JUMPDEST PUSH1 0x3 SLOAD DUP2 JUMP JUMPDEST PUSH1 0x0 PUSH2 0x397 PUSH8 0x57AE74521DC30A5D PUSH1 0xC0 SHL PUSH2 0xCD8 JUMP JUMPDEST PUSH2 0x3AB PUSH8 0x72ADB751BDB0A98A PUSH1 0xC0 SHL PUSH2 0xCD8 JUMP JUMPDEST PUSH2 0x3BF PUSH8 0x37A19D6D76E9E691 PUSH1 0xC0 SHL PUSH2 0xCD8 JUMP JUMPDEST PUSH1 0x5 SLOAD NUMBER LT PUSH2 0x40D JUMPI PUSH2 0x3DC PUSH8 0xA611DF2014CCA56B PUSH1 0xC0 SHL PUSH2 0xCD8 JUMP JUMPDEST PUSH2 0x3F0 PUSH8 0x68EF772FF79A9F08 PUSH1 0xC0 SHL PUSH2 0xCD8 JUMP JUMPDEST PUSH2 0x404 PUSH8 0x4A53136B2D7148CE PUSH1 0xC0 SHL PUSH2 0xCD8 JUMP JUMPDEST PUSH1 0x0 SWAP1 POP PUSH2 0x4A2 JUMP JUMPDEST PUSH2 0x421 PUSH8 0x194DFA7DFF97FEA1 PUSH1 0xC0 SHL PUSH2 0xCD8 JUMP JUMPDEST PUSH2 0x435 PUSH8 0xA058549DA0371770 PUSH1 0xC0 SHL PUSH2 0xCD8 JUMP JUMPDEST PUSH2 0x449 PUSH8 0xD0650CBD20BAEA02 PUSH1 0xC0 SHL PUSH2 0xCD8 JUMP JUMPDEST PUSH1 0x0 NUMBER PUSH1 0x5 SLOAD PUSH2 0x459 SWAP2 SWAP1 PUSH2 0xE40 JUMP JUMPDEST SWAP1 POP PUSH2 0x46F PUSH8 0xDB55741D290899E6 PUSH1 0xC0 SHL PUSH2 0xCD8 JUMP JUMPDEST PUSH2 0x483 PUSH8 0xC10056326256D777 PUSH1 0xC0 SHL PUSH2 0xCD8 JUMP JUMPDEST PUSH1 0x3 SLOAD DUP2 PUSH2 0x491 SWAP2 SWAP1 PUSH2 0xE74 JUMP JUMPDEST PUSH1 0x4 SLOAD PUSH2 0x49E SWAP2 SWAP1 PUSH2 0xE40 JUMP JUMPDEST SWAP2 POP POP JUMPDEST SWAP1 JUMP JUMPDEST PUSH2 0x4B9 PUSH8 0x3AE295DF7B855718 PUSH1 0xC0 SHL PUSH2 0xCD8 JUMP JUMPDEST PUSH2 0x4CD PUSH8 0xB3B77C57124F32F8 PUSH1 0xC0 SHL PUSH2 0xCD8 JUMP JUMPDEST PUSH2 0x4E1 PUSH8 0x68CB3D10F0E4EDA2 PUSH1 0xC0 SHL PUSH2 0xCD8 JUMP JUMPDEST PUSH2 0x4F5 PUSH8 0x3A52BCF535776D05 PUSH1 0xC0 SHL PUSH2 0xCD8 JUMP JUMPDEST PUSH1 0x0 PUSH1 0x9 PUSH1 0x0 CALLER PUSH20 0xFFFFFFFFFFFFFFFFFFFFFFFFFFFFFFFFFFFFFFFF AND PUSH20 0xFFFFFFFFFFFFFFFFFFFFFFFFFFFFFFFFFFFFFFFF AND DUP2 MSTORE PUSH1 0x20 ADD SWAP1 DUP2 MSTORE PUSH1 0x20 ADD PUSH1 0x0 KECCAK256 SLOAD GT PUSH2 0x577 JUMPI PUSH1 0x40 MLOAD PUSH32 0x8C379A000000000000000000000000000000000000000000000000000000000 DUP2 MSTORE PUSH1 0x4 ADD PUSH2 0x56E SWAP1 PUSH2 0xF39 JUMP JUMPDEST PUSH1 0x40 MLOAD DUP1 SWAP2 SUB SWAP1 REVERT JUMPDEST PUSH2 0x58B PUSH8 0xFD232A52291BCDA7 PUSH1 0xC0 SHL PUSH2 0xCD8 JUMP JUMPDEST PUSH2 0x59F PUSH8 0x2FED32F78069E037 PUSH1 0xC0 SHL PUSH2 0xCD8 JUMP JUMPDEST PUSH2 0x5B3 PUSH8 0xBBD293B4FF629C23 PUSH1 0xC0 SHL PUSH2 0xCD8 JUMP JUMPDEST PUSH1 0x0 PUSH1 0x9 PUSH1 0x0 CALLER PUSH20 0xFFFFFFFFFFFFFFFFFFFFFFFFFFFFFFFFFFFFFFFF AND PUSH20 0xFFFFFFFFFFFFFFFFFFFFFFFFFFFFFFFFFFFFFFFF AND DUP2 MSTORE PUSH1 0x20 ADD SWAP1 DUP2 MSTORE PUSH1 0x20 ADD PUSH1 0x0 KECCAK256 SLOAD SWAP1 POP PUSH2 0x60B PUSH8 0xF4E1B5F75AC2C1F PUSH1 0xC0 SHL PUSH2 0xCD8 JUMP JUMPDEST PUSH1 0x0 PUSH1 0x9 PUSH1 0x0 CALLER PUSH20 0xFFFFFFFFFFFFFFFFFFFFFFFFFFFFFFFFFFFFFFFF AND PUSH20 0xFFFFFFFFFFFFFFFFFFFFFFFFFFFFFFFFFFFFFFFF AND DUP2 MSTORE PUSH1 0x20 ADD SWAP1 DUP2 MSTORE PUSH1 0x20 ADD PUSH1 0x0 KECCAK256 DUP2 SWAP1 SSTORE POP PUSH2 0x664 PUSH8 0x8383411590E4FB0D PUSH1 0xC0 SHL PUSH2 0xCD8 JUMP JUMPDEST PUSH2 0x678 PUSH8 0xD2461FA2FB9C4605 PUSH1 0xC0 SHL PUSH2 0xCD8 JUMP JUMPDEST CALLER PUSH20 0xFFFFFFFFFFFFFFFFFFFFFFFFFFFFFFFFFFFFFFFF AND PUSH2 0x8FC DUP3 SWAP1 DUP2 ISZERO MUL SWAP1 PUSH1 0x40 MLOAD PUSH1 0x0 PUSH1 0x40 MLOAD DUP1 DUP4 SUB DUP2 DUP6 DUP9 DUP9 CALL SWAP4 POP POP POP POP ISZERO DUP1 ISZERO PUSH2 0x6BE JUMPI RETURNDATASIZE PUSH1 0x0 DUP1 RETURNDATACOPY RETURNDATASIZE PUSH1 0x0 REVERT JUMPDEST POP POP JUMP JUMPDEST PUSH1 0x0 DUP1 SLOAD SWAP1 PUSH2 0x100 EXP SWAP1 DIV PUSH20 0xFFFFFFFFFFFFFFFFFFFFFFFFFFFFFFFFFFFFFFFF AND DUP2 JUMP JUMPDEST PUSH1 0x6 PUSH1 0x0 SWAP1 SLOAD SWAP1 PUSH2 0x100 EXP SWAP1 DIV PUSH1 0xFF AND DUP2 JUMP JUMPDEST PUSH1 0x1 SLOAD DUP2 JUMP JUMPDEST PUSH1 0x9 PUSH1 0x20 MSTORE DUP1 PUSH1 0x0 MSTORE PUSH1 0x40 PUSH1 0x0 KECCAK256 PUSH1 0x0 SWAP2 POP SWAP1 POP SLOAD DUP2 JUMP JUMPDEST PUSH1 0x7 SLOAD DUP2 JUMP JUMPDEST PUSH1 0x6 PUSH1 0x1 SWAP1 SLOAD SWAP1 PUSH2 0x100 EXP SWAP1 DIV PUSH20 0xFFFFFFFFFFFFFFFFFFFFFFFFFFFFFFFFFFFFFFFF AND DUP2 JUMP JUMPDEST PUSH1 0x0 PUSH2 0x759 PUSH8 0x9D5FBD25BF673275 PUSH1 0xC0 SHL PUSH2 0xCD8 JUMP JUMPDEST PUSH2 0x76D PUSH8 0xBB8E99C86AC3C0DB PUSH1 0xC0 SHL PUSH2 0xCD8 JUMP JUMPDEST PUSH2 0x781 PUSH8 0x9C8584B465C7F870 PUSH1 0xC0 SHL PUSH2 0xCD8 JUMP JUMPDEST PUSH1 0x0 PUSH2 0x78B PUSH2 0x381 JUMP JUMPDEST SWAP1 POP PUSH2 0x7A1 PUSH8 0xFB7595F007FAACCA PUSH1 0xC0 SHL PUSH2 0xCD8 JUMP JUMPDEST PUSH2 0x7B5 PUSH8 0x7C7E608C0B34DA6C PUSH1 0xC0 SHL PUSH2 0xCD8 JUMP JUMPDEST PUSH2 0x7C9 PUSH8 0x4FF62F23BAE3AA43 PUSH1 0xC0 SHL PUSH2 0xCD8 JUMP JUMPDEST PUSH1 0x0 DUP2 GT PUSH2 0x80C JUMPI PUSH1 0x40 MLOAD PUSH32 0x8C379A000000000000000000000000000000000000000000000000000000000 DUP2 MSTORE PUSH1 0x4 ADD PUSH2 0x803 SWAP1 PUSH2 0xFA5 JUMP JUMPDEST PUSH1 0x40 MLOAD DUP1 SWAP2 SUB SWAP1 REVERT JUMPDEST PUSH2 0x820 PUSH8 0xEF0292DFB6230263 PUSH1 0xC0 SHL PUSH2 0xCD8 JUMP JUMPDEST PUSH2 0x834 PUSH8 0x9A011A157A79E1F1 PUSH1 0xC0 SHL PUSH2 0xCD8 JUMP JUMPDEST PUSH2 0x848 PUSH8 0x989A285AB717727 PUSH1 0xC0 SHL PUSH2 0xCD8 JUMP JUMPDEST PUSH2 0x85C PUSH8 0x8EC9F94BA27FFF97 PUSH1 0xC0 SHL PUSH2 0xCD8 JUMP JUMPDEST PUSH1 0x0 CALLVALUE GT PUSH2 0x89F JUMPI PUSH1 0x40 MLOAD PUSH32 0x8C379A000000000000000000000000000000000000000000000000000000000 DUP2 MSTORE PUSH1 0x4 ADD PUSH2 0x896 SWAP1 PUSH2 0x1037 JUMP JUMPDEST PUSH1 0x40 MLOAD DUP1 SWAP2 SUB SWAP1 REVERT JUMPDEST PUSH2 0x8B3 PUSH8 0xAA79069BB48B4FE6 PUSH1 0xC0 SHL PUSH2 0xCD8 JUMP JUMPDEST PUSH2 0x8C7 PUSH8 0xF92DFCCD58BACFE2 PUSH1 0xC0 SHL PUSH2 0xCD8 JUMP JUMPDEST PUSH2 0x8DB PUSH8 0x175D70CDE0814451 PUSH1 0xC0 SHL PUSH2 0xCD8 JUMP JUMPDEST PUSH2 0x8EF PUSH8 0xB409833044CA92B2 PUSH1 0xC0 SHL PUSH2 0xCD8 JUMP JUMPDEST DUP1 CALLVALUE LT ISZERO PUSH2 0x932 JUMPI PUSH1 0x40 MLOAD PUSH32 0x8C379A000000000000000000000000000000000000000000000000000000000 DUP2 MSTORE PUSH1 0x4 ADD PUSH2 0x929 SWAP1 PUSH2 0x10C9 JUMP JUMPDEST PUSH1 0x40 MLOAD DUP1 SWAP2 SUB SWAP1 REVERT JUMPDEST PUSH2 0x946 PUSH8 0x1B834C8547F66EC3 PUSH1 0xC0 SHL PUSH2 0xCD8 JUMP JUMPDEST PUSH2 0x95A PUSH8 0x1C4C22A6A47481C5 PUSH1 0xC0 SHL PUSH2 0xCD8 JUMP JUMPDEST PUSH2 0x96E PUSH8 0xE6CA057ED3D7CD6D PUSH1 0xC0 SHL PUSH2 0xCD8 JUMP JUMPDEST PUSH1 0x8 PUSH1 0x0 SWAP1 SLOAD SWAP1 PUSH2 0x100 EXP SWAP1 DIV PUSH1 0xFF AND PUSH2 0xB85 JUMPI PUSH2 0x996 PUSH8 0xBEEDB9708FF72745 PUSH1 0xC0 SHL PUSH2 0xCD8 JUMP JUMPDEST PUSH2 0x9AA PUSH8 0xC1740B89DDB09502 PUSH1 0xC0 SHL PUSH2 0xCD8 JUMP JUMPDEST CALLER PUSH1 0x6 PUSH1 0x1 PUSH2 0x100 EXP DUP2 SLOAD DUP2 PUSH20 0xFFFFFFFFFFFFFFFFFFFFFFFFFFFFFFFFFFFFFFFF MUL NOT AND SWAP1 DUP4 PUSH20 0xFFFFFFFFFFFFFFFFFFFFFFFFFFFFFFFFFFFFFFFF AND MUL OR SWAP1 SSTORE POP PUSH2 0x9FF PUSH8 0x4E9E450508A1FD61 PUSH1 0xC0 SHL PUSH2 0xCD8 JUMP JUMPDEST CALLVALUE PUSH1 0x7 DUP2 SWAP1 SSTORE POP PUSH2 0xA1A PUSH8 0xAC671D63DA6736F9 PUSH1 0xC0 SHL PUSH2 0xCD8 JUMP JUMPDEST PUSH1 0x1 PUSH1 0x8 PUSH1 0x0 PUSH2 0x100 EXP DUP2 SLOAD DUP2 PUSH1 0xFF MUL NOT AND SWAP1 DUP4 ISZERO ISZERO MUL OR SWAP1 SSTORE POP PUSH2 0xA49 PUSH8 0x407FF454A5DD2303 PUSH1 0xC0 SHL PUSH2 0xCD8 JUMP JUMPDEST PUSH1 0x7 SLOAD PUSH1 0x9 PUSH1 0x0 DUP1 PUSH1 0x0 SWAP1 SLOAD SWAP1 PUSH2 0x100 EXP SWAP1 DIV PUSH20 0xFFFFFFFFFFFFFFFFFFFFFFFFFFFFFFFFFFFFFFFF AND PUSH20 0xFFFFFFFFFFFFFFFFFFFFFFFFFFFFFFFFFFFFFFFF AND PUSH20 0xFFFFFFFFFFFFFFFFFFFFFFFFFFFFFFFFFFFFFFFF AND DUP2 MSTORE PUSH1 0x20 ADD SWAP1 DUP2 MSTORE PUSH1 0x20 ADD PUSH1 0x0 KECCAK256 PUSH1 0x0 DUP3 DUP3 SLOAD PUSH2 0xABB SWAP2 SWAP1 PUSH2 0x10E9 JUMP JUMPDEST SWAP3 POP POP DUP2 SWAP1 SSTORE POP PUSH2 0xAD6 PUSH8 0x4A5B19121C4BAF5E PUSH1 0xC0 SHL PUSH2 0xCD8 JUMP JUMPDEST PUSH2 0xAEA PUSH8 0x98D79BCA8F588A8F PUSH1 0xC0 SHL PUSH2 0xCD8 JUMP JUMPDEST PUSH1 0x0 DUP1 SLOAD SWAP1 PUSH2 0x100 EXP SWAP1 DIV PUSH20 0xFFFFFFFFFFFFFFFFFFFFFFFFFFFFFFFFFFFFFFFF AND PUSH20 0xFFFFFFFFFFFFFFFFFFFFFFFFFFFFFFFFFFFFFFFF AND PUSH2 0x8FC PUSH1 0x7 SLOAD SWAP1 DUP2 ISZERO MUL SWAP1 PUSH1 0x40 MLOAD PUSH1 0x0 PUSH1 0x40 MLOAD DUP1 DUP4 SUB DUP2 DUP6 DUP9 DUP9 CALL SWAP4 POP POP POP POP ISZERO DUP1 ISZERO PUSH2 0xB52 JUMPI RETURNDATASIZE PUSH1 0x0 DUP1 RETURNDATACOPY RETURNDATASIZE PUSH1 0x0 REVERT JUMPDEST POP PUSH2 0xB67 PUSH8 0x57D3746ECD41A87A PUSH1 0xC0 SHL PUSH2 0xCD8 JUMP JUMPDEST PUSH2 0xB7B PUSH8 0x6E88B98B7C031EC4 PUSH1 0xC0 SHL PUSH2 0xCD8 JUMP JUMPDEST PUSH1 0x1 SWAP2 POP POP PUSH2 0xC31 JUMP JUMPDEST PUSH2 0xB99 PUSH8 0xFE88D3DBF7ABF7F PUSH1 0xC0 SHL PUSH2 0xCD8 JUMP JUMPDEST PUSH2 0xBAD PUSH8 0xCAC6F981593D4FCC PUSH1 0xC0 SHL PUSH2 0xCD8 JUMP JUMPDEST CALLVALUE PUSH1 0x9 PUSH1 0x0 CALLER PUSH20 0xFFFFFFFFFFFFFFFFFFFFFFFFFFFFFFFFFFFFFFFF AND PUSH20 0xFFFFFFFFFFFFFFFFFFFFFFFFFFFFFFFFFFFFFFFF AND DUP2 MSTORE PUSH1 0x20 ADD SWAP1 DUP2 MSTORE PUSH1 0x20 ADD PUSH1 0x0 KECCAK256 PUSH1 0x0 DUP3 DUP3 SLOAD PUSH2 0xBFC SWAP2 SWAP1 PUSH2 0x10E9 JUMP JUMPDEST SWAP3 POP POP DUP2 SWAP1 SSTORE POP PUSH2 0xC17 PUSH8 0xB9C921B6C89CC8EE PUSH1 0xC0 SHL PUSH2 0xCD8 JUMP JUMPDEST PUSH2 0xC2B PUSH8 0xE489B04B795EF96C PUSH1 0xC0 SHL PUSH2 0xCD8 JUMP JUMPDEST PUSH1 0x0 SWAP2 POP POP JUMPDEST SWAP1 JUMP JUMPDEST PUSH1 0x2 SLOAD DUP2 JUMP JUMPDEST PUSH1 0x4 SLOAD DUP2 JUMP JUMPDEST PUSH1 0x8 PUSH1 0x0 SWAP1 SLOAD SWAP1 PUSH2 0x100 EXP SWAP1 DIV PUSH1 0xFF AND DUP2 JUMP JUMPDEST PUSH1 0x0 PUSH2 0xC69 PUSH8 0x540E7F33A3D69E6B PUSH1 0xC0 SHL PUSH2 0xCD8 JUMP JUMPDEST PUSH2 0xC7D PUSH8 0xAF94BD167851DCCC PUSH1 0xC0 SHL PUSH2 0xCD8 JUMP JUMPDEST PUSH2 0xC91 PUSH8 0x6C44BE705788BBDA PUSH1 0xC0 SHL PUSH2 0xCD8 JUMP JUMPDEST PUSH1 0x9 PUSH1 0x0 DUP4 PUSH20 0xFFFFFFFFFFFFFFFFFFFFFFFFFFFFFFFFFFFFFFFF AND PUSH20 0xFFFFFFFFFFFFFFFFFFFFFFFFFFFFFFFFFFFFFFFF AND DUP2 MSTORE PUSH1 0x20 ADD SWAP1 DUP2 MSTORE PUSH1 0x20 ADD PUSH1 0x0 KECCAK256 SLOAD SWAP1 POP SWAP2 SWAP1 POP JUMP JUMPDEST POP JUMP JUMPDEST PUSH1 0x0 DUP2 SWAP1 POP SWAP2 SWAP1 POP JUMP JUMPDEST PUSH2 0xCEE DUP2 PUSH2 0xCDB JUMP JUMPDEST DUP3 MSTORE POP POP JUMP JUMPDEST PUSH1 0x0 PUSH1 0x20 DUP3 ADD SWAP1 POP PUSH2 0xD09 PUSH1 0x0 DUP4 ADD DUP5 PUSH2 0xCE5 JUMP JUMPDEST SWAP3 SWAP2 POP POP JUMP JUMPDEST PUSH1 0x0 PUSH20 0xFFFFFFFFFFFFFFFFFFFFFFFFFFFFFFFFFFFFFFFF DUP3 AND SWAP1 POP SWAP2 SWAP1 POP JUMP JUMPDEST PUSH1 0x0 PUSH2 0xD3A DUP3 PUSH2 0xD0F JUMP JUMPDEST SWAP1 POP SWAP2 SWAP1 POP JUMP JUMPDEST PUSH2 0xD4A DUP2 PUSH2 0xD2F JUMP JUMPDEST DUP3 MSTORE POP POP JUMP JUMPDEST PUSH1 0x0 PUSH1 0x20 DUP3 ADD SWAP1 POP PUSH2 0xD65 PUSH1 0x0 DUP4 ADD DUP5 PUSH2 0xD41 JUMP JUMPDEST SWAP3 SWAP2 POP POP JUMP JUMPDEST PUSH1 0x0 DUP2 ISZERO ISZERO SWAP1 POP SWAP2 SWAP1 POP JUMP JUMPDEST PUSH2 0xD80 DUP2 PUSH2 0xD6B JUMP JUMPDEST DUP3 MSTORE POP POP JUMP JUMPDEST PUSH1 0x0 PUSH1 0x20 DUP3 ADD SWAP1 POP PUSH2 0xD9B PUSH1 0x0 DUP4 ADD DUP5 PUSH2 0xD77 JUMP JUMPDEST SWAP3 SWAP2 POP POP JUMP JUMPDEST PUSH1 0x0 DUP1 REVERT JUMPDEST PUSH1 0x0 PUSH2 0xDB1 DUP3 PUSH2 0xD0F JUMP JUMPDEST SWAP1 POP SWAP2 SWAP1 POP JUMP JUMPDEST PUSH2 0xDC1 DUP2 PUSH2 0xDA6 JUMP JUMPDEST DUP2 EQ PUSH2 0xDCC JUMPI PUSH1 0x0 DUP1 REVERT JUMPDEST POP JUMP JUMPDEST PUSH1 0x0 DUP2 CALLDATALOAD SWAP1 POP PUSH2 0xDDE DUP2 PUSH2 0xDB8 JUMP JUMPDEST SWAP3 SWAP2 POP POP JUMP JUMPDEST PUSH1 0x0 PUSH1 0x20 DUP3 DUP5 SUB SLT ISZERO PUSH2 0xDFA JUMPI PUSH2 0xDF9 PUSH2 0xDA1 JUMP JUMPDEST JUMPDEST PUSH1 0x0 PUSH2 0xE08 DUP5 DUP3 DUP6 ADD PUSH2 0xDCF JUMP JUMPDEST SWAP2 POP POP SWAP3 SWAP2 POP POP JUMP JUMPDEST PUSH32 0x4E487B7100000000000000000000000000000000000000000000000000000000 PUSH1 0x0 MSTORE PUSH1 0x11 PUSH1 0x4 MSTORE PUSH1 0x24 PUSH1 0x0 REVERT JUMPDEST PUSH1 0x0 PUSH2 0xE4B DUP3 PUSH2 0xCDB JUMP JUMPDEST SWAP2 POP PUSH2 0xE56 DUP4 PUSH2 0xCDB JUMP JUMPDEST SWAP3 POP DUP3 DUP3 SUB SWAP1 POP DUP2 DUP2 GT ISZERO PUSH2 0xE6E JUMPI PUSH2 0xE6D PUSH2 0xE11 JUMP JUMPDEST JUMPDEST SWAP3 SWAP2 POP POP JUMP JUMPDEST PUSH1 0x0 PUSH2 0xE7F DUP3 PUSH2 0xCDB JUMP JUMPDEST SWAP2 POP PUSH2 0xE8A DUP4 PUSH2 0xCDB JUMP JUMPDEST SWAP3 POP DUP3 DUP3 MUL PUSH2 0xE98 DUP2 PUSH2 0xCDB JUMP JUMPDEST SWAP2 POP DUP3 DUP3 DIV DUP5 EQ DUP4 ISZERO OR PUSH2 0xEAF JUMPI PUSH2 0xEAE PUSH2 0xE11 JUMP JUMPDEST JUMPDEST POP SWAP3 SWAP2 POP POP JUMP JUMPDEST PUSH1 0x0 DUP3 DUP3 MSTORE PUSH1 0x20 DUP3 ADD SWAP1 POP SWAP3 SWAP2 POP POP JUMP JUMPDEST PUSH32 0x4E6F20726566756E6420617661696C61626C6520666F7220746865206163636F PUSH1 0x0 DUP3 ADD MSTORE PUSH32 0x756E740000000000000000000000000000000000000000000000000000000000 PUSH1 0x20 DUP3 ADD MSTORE POP JUMP JUMPDEST PUSH1 0x0 PUSH2 0xF23 PUSH1 0x23 DUP4 PUSH2 0xEB6 JUMP JUMPDEST SWAP2 POP PUSH2 0xF2E DUP3 PUSH2 0xEC7 JUMP JUMPDEST PUSH1 0x40 DUP3 ADD SWAP1 POP SWAP2 SWAP1 POP JUMP JUMPDEST PUSH1 0x0 PUSH1 0x20 DUP3 ADD SWAP1 POP DUP2 DUP2 SUB PUSH1 0x0 DUP4 ADD MSTORE PUSH2 0xF52 DUP2 PUSH2 0xF16 JUMP JUMPDEST SWAP1 POP SWAP2 SWAP1 POP JUMP JUMPDEST PUSH32 0x41756374696F6E2068617320636F6E636C756465640000000000000000000000 PUSH1 0x0 DUP3 ADD MSTORE POP JUMP JUMPDEST PUSH1 0x0 PUSH2 0xF8F PUSH1 0x15 DUP4 PUSH2 0xEB6 JUMP JUMPDEST SWAP2 POP PUSH2 0xF9A DUP3 PUSH2 0xF59 JUMP JUMPDEST PUSH1 0x20 DUP3 ADD SWAP1 POP SWAP2 SWAP1 POP JUMP JUMPDEST PUSH1 0x0 PUSH1 0x20 DUP3 ADD SWAP1 POP DUP2 DUP2 SUB PUSH1 0x0 DUP4 ADD MSTORE PUSH2 0xFBE DUP2 PUSH2 0xF82 JUMP JUMPDEST SWAP1 POP SWAP2 SWAP1 POP JUMP JUMPDEST PUSH32 0x5375626D6974746564206269642076616C7565206D7573742062652067726561 PUSH1 0x0 DUP3 ADD MSTORE PUSH32 0x746572207468616E203000000000000000000000000000000000000000000000 PUSH1 0x20 DUP3 ADD MSTORE POP JUMP JUMPDEST PUSH1 0x0 PUSH2 0x1021 PUSH1 0x2A DUP4 PUSH2 0xEB6 JUMP JUMPDEST SWAP2 POP PUSH2 0x102C DUP3 PUSH2 0xFC5 JUMP JUMPDEST PUSH1 0x40 DUP3 ADD SWAP1 POP SWAP2 SWAP1 POP JUMP JUMPDEST PUSH1 0x0 PUSH1 0x20 DUP3 ADD SWAP1 POP DUP2 DUP2 SUB PUSH1 0x0 DUP4 ADD MSTORE PUSH2 0x1050 DUP2 PUSH2 0x1014 JUMP JUMPDEST SWAP1 POP SWAP2 SWAP1 POP JUMP JUMPDEST PUSH32 0x5375626D6974746564206269642076616C7565206973206C6F77657220746861 PUSH1 0x0 DUP3 ADD MSTORE PUSH32 0x6E207468652063757272656E7420707269636500000000000000000000000000 PUSH1 0x20 DUP3 ADD MSTORE POP JUMP JUMPDEST PUSH1 0x0 PUSH2 0x10B3 PUSH1 0x33 DUP4 PUSH2 0xEB6 JUMP JUMPDEST SWAP2 POP PUSH2 0x10BE DUP3 PUSH2 0x1057 JUMP JUMPDEST PUSH1 0x40 DUP3 ADD SWAP1 POP SWAP2 SWAP1 POP JUMP JUMPDEST PUSH1 0x0 PUSH1 0x20 DUP3 ADD SWAP1 POP DUP2 DUP2 SUB PUSH1 0x0 DUP4 ADD MSTORE PUSH2 0x10E2 DUP2 PUSH2 0x10A6 JUMP JUMPDEST SWAP1 POP SWAP2 SWAP1 POP JUMP JUMPDEST PUSH1 0x0 PUSH2 0x10F4 DUP3 PUSH2 0xCDB JUMP JUMPDEST SWAP2 POP PUSH2 0x10FF DUP4 PUSH2 0xCDB JUMP JUMPDEST SWAP3 POP DUP3 DUP3 ADD SWAP1 POP DUP1 DUP3 GT ISZERO PUSH2 0x1117 JUMPI PUSH2 0x1116 PUSH2 0xE11 JUMP JUMPDEST JUMPDEST SWAP3 SWAP2 POP POP JUMP INVALID LOG2 PUSH5 0x6970667358 0x22 SLT KECCAK256 0xD7 0x1E 0x29 PUSH16 0xC4571903223C2B697E0B39099A2D6A66 EXP CALLER 0xD8 0xC0 0xFC DUP11 0x29 0xE9 ISZERO SWAP11 0xD9 DUP16 PUSH5 0x736F6C6343 STOP ADDMOD SLT STOP CALLER "},"methodIdentifiers":{"auctionCreator()":"677f8c14","auctionDurationInBlocks()":"ef763479","auctionEndBlockNumber()":"0b738946","auctionEnded()":"86433374","bidsByAddress(address)":"cbd330eb","getBalance(address)":"f8b2cb4f","getCurrentAuctionPrice()":"51c7115b","hasReceivedValidBid()":"f5abdb62","initialBidValue()":"e0cd584b","initialParticipant()":"e99b75ad","minimumAcceptablePrice()":"bf41ab3f","placeBid()":"ecfc7ecc","priceDecrementPerBlock()":"4e0aa412","retrieveRefund()":"54ddd5d6","startPrice()":"f1a9af89"}}}}}