{
  "_format": "hh-sol-artifact-1",
  "contractName": "BasicDutchAuction",
  "sourceName": "contracts/BasicDutchAuction.sol",
  "abi": [
    {
      "inputs": [
        {
          "internalType": "uint256",
          "name": "_minimumAcceptablePrice",
          "type": "uint256"
        },
        {
          "internalType": "uint256",
          "name": "_auctionDurationInBlocks",
          "type": "uint256"
        },
        {
          "internalType": "uint256",
          "name": "_priceDecrementPerBlock",
          "type": "uint256"
        }
      ],
      "stateMutability": "nonpayable",
      "type": "constructor"
    },
    {
      "anonymous": false,
      "inputs": [
        {
          "indexed": false,
          "internalType": "address",
          "name": "winner",
          "type": "address"
        },
        {
          "indexed": false,
          "internalType": "uint256",
          "name": "amount",
          "type": "uint256"
        }
      ],
      "name": "AuctionCompleted",
      "type": "event"
    },
    {
      "inputs": [],
      "name": "auctionCreator",
      "outputs": [
        {
          "internalType": "address payable",
          "name": "",
          "type": "address"
        }
      ],
      "stateMutability": "view",
      "type": "function"
    },
    {
      "inputs": [],
      "name": "auctionDurationInBlocks",
      "outputs": [
        {
          "internalType": "uint256",
          "name": "",
          "type": "uint256"
        }
      ],
      "stateMutability": "view",
      "type": "function"
    },
    {
      "inputs": [],
      "name": "auctionEndBlockNumber",
      "outputs": [
        {
          "internalType": "uint256",
          "name": "",
          "type": "uint256"
        }
      ],
      "stateMutability": "view",
      "type": "function"
    },
    {
      "inputs": [],
      "name": "auctionEnded",
      "outputs": [
        {
          "internalType": "bool",
          "name": "",
          "type": "bool"
        }
      ],
      "stateMutability": "view",
      "type": "function"
    },
    {
      "inputs": [
        {
          "internalType": "address",
          "name": "",
          "type": "address"
        }
      ],
      "name": "bidsByAddress",
      "outputs": [
        {
          "internalType": "uint256",
          "name": "",
          "type": "uint256"
        }
      ],
      "stateMutability": "view",
      "type": "function"
    },
    {
      "inputs": [
        {
          "internalType": "address",
          "name": "account",
          "type": "address"
        }
      ],
      "name": "getBalance",
      "outputs": [
        {
          "internalType": "uint256",
          "name": "",
          "type": "uint256"
        }
      ],
      "stateMutability": "view",
      "type": "function"
    },
    {
      "inputs": [],
      "name": "getCurrentAuctionPrice",
      "outputs": [
        {
          "internalType": "uint256",
          "name": "",
          "type": "uint256"
        }
      ],
      "stateMutability": "view",
      "type": "function"
    },
    {
      "inputs": [],
      "name": "hasReceivedValidBid",
      "outputs": [
        {
          "internalType": "bool",
          "name": "",
          "type": "bool"
        }
      ],
      "stateMutability": "view",
      "type": "function"
    },
    {
      "inputs": [],
      "name": "initialBidValue",
      "outputs": [
        {
          "internalType": "uint256",
          "name": "",
          "type": "uint256"
        }
      ],
      "stateMutability": "view",
      "type": "function"
    },
    {
      "inputs": [],
      "name": "initialParticipant",
      "outputs": [
        {
          "internalType": "address payable",
          "name": "",
          "type": "address"
        }
      ],
      "stateMutability": "view",
      "type": "function"
    },
    {
      "inputs": [],
      "name": "minimumAcceptablePrice",
      "outputs": [
        {
          "internalType": "uint256",
          "name": "",
          "type": "uint256"
        }
      ],
      "stateMutability": "view",
      "type": "function"
    },
    {
      "inputs": [],
      "name": "placeBid",
      "outputs": [
        {
          "internalType": "bool",
          "name": "",
          "type": "bool"
        }
      ],
      "stateMutability": "payable",
      "type": "function"
    },
    {
      "inputs": [],
      "name": "priceDecrementPerBlock",
      "outputs": [
        {
          "internalType": "uint256",
          "name": "",
          "type": "uint256"
        }
      ],
      "stateMutability": "view",
      "type": "function"
    },
    {
      "inputs": [],
      "name": "retrieveRefund",
      "outputs": [],
      "stateMutability": "nonpayable",
      "type": "function"
    },
    {
      "inputs": [],
      "name": "startPrice",
      "outputs": [
        {
          "internalType": "uint256",
          "name": "",
          "type": "uint256"
        }
      ],
      "stateMutability": "view",
      "type": "function"
    }
  ],
  "bytecode": "0x60806040523480156200001157600080fd5b506040516200153d3803806200153d8339818101604052810190620000379190620002c9565b62000053676e6bfab8e5f862ae60c01b6200028660201b60201c565b6200006f67ac474e2aecd4b86960c01b6200028660201b60201c565b336000806101000a81548173ffffffffffffffffffffffffffffffffffffffff021916908373ffffffffffffffffffffffffffffffffffffffff160217905550620000cb67d20d6ef7b757fc2660c01b6200028660201b60201c565b82600181905550620000ee6754acda06e5ac6d6660c01b6200028660201b60201c565b816002819055506200011167b4c0a2e05f252f9160c01b6200028660201b60201c565b806003819055506200013467d1161519495f1afe60c01b6200028660201b60201c565b60035460025462000146919062000354565b6001546200015591906200039f565b6004819055506200017767095c6577e8cabf6c60c01b6200028660201b60201c565b600254436200018791906200039f565b600581905550620001a9679c4ed189e007ce1e60c01b6200028660201b60201c565b6000600660006101000a81548160ff021916908315150217905550620001e067295d59e6557fba5460c01b6200028660201b60201c565b6000600860006101000a81548160ff0219169083151502179055506200021767c5b433964a87283760c01b6200028660201b60201c565b6000600660016101000a81548173ffffffffffffffffffffffffffffffffffffffff021916908373ffffffffffffffffffffffffffffffffffffffff1602179055506200027567cf6d265f0c79df5660c01b6200028660201b60201c565b6000600781905550505050620003da565b50565b600080fd5b6000819050919050565b620002a3816200028e565b8114620002af57600080fd5b50565b600081519050620002c38162000298565b92915050565b600080600060608486031215620002e557620002e462000289565b5b6000620002f586828701620002b2565b93505060206200030886828701620002b2565b92505060406200031b86828701620002b2565b9150509250925092565b7f4e487b7100000000000000000000000000000000000000000000000000000000600052601160045260246000fd5b600062000361826200028e565b91506200036e836200028e565b92508282026200037e816200028e565b9150828204841483151762000398576200039762000325565b5b5092915050565b6000620003ac826200028e565b9150620003b9836200028e565b9250828201905080821115620003d457620003d362000325565b5b92915050565b61115380620003ea6000396000f3fe6080604052600436106100e85760003560e01c8063cbd330eb1161008a578063ef76347911610059578063ef763479146102b7578063f1a9af89146102e2578063f5abdb621461030d578063f8b2cb4f14610338576100e8565b8063cbd330eb14610206578063e0cd584b14610243578063e99b75ad1461026e578063ecfc7ecc14610299576100e8565b806354ddd5d6116100c657806354ddd5d61461016e578063677f8c141461018557806386433374146101b0578063bf41ab3f146101db576100e8565b80630b738946146100ed5780634e0aa4121461011857806351c7115b14610143575b600080fd5b3480156100f957600080fd5b50610102610375565b60405161010f9190610cf4565b60405180910390f35b34801561012457600080fd5b5061012d61037b565b60405161013a9190610cf4565b60405180910390f35b34801561014f57600080fd5b50610158610381565b6040516101659190610cf4565b60405180910390f35b34801561017a57600080fd5b506101836104a5565b005b34801561019157600080fd5b5061019a6106c2565b6040516101a79190610d50565b60405180910390f35b3480156101bc57600080fd5b506101c56106e6565b6040516101d29190610d86565b60405180910390f35b3480156101e757600080fd5b506101f06106f9565b6040516101fd9190610cf4565b60405180910390f35b34801561021257600080fd5b5061022d60048036038101906102289190610de4565b6106ff565b60405161023a9190610cf4565b60405180910390f35b34801561024f57600080fd5b50610258610717565b6040516102659190610cf4565b60405180910390f35b34801561027a57600080fd5b5061028361071d565b6040516102909190610d50565b60405180910390f35b6102a1610743565b6040516102ae9190610d86565b60405180910390f35b3480156102c357600080fd5b506102cc610c34565b6040516102d99190610cf4565b60405180910390f35b3480156102ee57600080fd5b506102f7610c3a565b6040516103049190610cf4565b60405180910390f35b34801561031957600080fd5b50610322610c40565b60405161032f9190610d86565b60405180910390f35b34801561034457600080fd5b5061035f600480360381019061035a9190610de4565b610c53565b60405161036c9190610cf4565b60405180910390f35b60055481565b60035481565b60006103976757ae74521dc30a5d60c01b610cd8565b6103ab6772adb751bdb0a98a60c01b610cd8565b6103bf6737a19d6d76e9e69160c01b610cd8565b600554431061040d576103dc67a611df2014cca56b60c01b610cd8565b6103f06768ef772ff79a9f0860c01b610cd8565b610404674a53136b2d7148ce60c01b610cd8565b600090506104a2565b61042167194dfa7dff97fea160c01b610cd8565b61043567a058549da037177060c01b610cd8565b61044967d0650cbd20baea0260c01b610cd8565b6000436005546104599190610e40565b905061046f67db55741d290899e660c01b610cd8565b61048367c10056326256d77760c01b610cd8565b600354816104919190610e74565b60045461049e9190610e40565b9150505b90565b6104b9673ae295df7b85571860c01b610cd8565b6104cd67b3b77c57124f32f860c01b610cd8565b6104e16768cb3d10f0e4eda260c01b610cd8565b6104f5673a52bcf535776d0560c01b610cd8565b6000600960003373ffffffffffffffffffffffffffffffffffffffff1673ffffffffffffffffffffffffffffffffffffffff1681526020019081526020016000205411610577576040517f08c379a000000000000000000000000000000000000000000000000000000000815260040161056e90610f39565b60405180910390fd5b61058b67fd232a52291bcda760c01b610cd8565b61059f672fed32f78069e03760c01b610cd8565b6105b367bbd293b4ff629c2360c01b610cd8565b6000600960003373ffffffffffffffffffffffffffffffffffffffff1673ffffffffffffffffffffffffffffffffffffffff16815260200190815260200160002054905061060b670f4e1b5f75ac2c1f60c01b610cd8565b6000600960003373ffffffffffffffffffffffffffffffffffffffff1673ffffffffffffffffffffffffffffffffffffffff16815260200190815260200160002081905550610664678383411590e4fb0d60c01b610cd8565b61067867d2461fa2fb9c460560c01b610cd8565b3373ffffffffffffffffffffffffffffffffffffffff166108fc829081150290604051600060405180830381858888f193505050501580156106be573d6000803e3d6000fd5b5050565b60008054906101000a900473ffffffffffffffffffffffffffffffffffffffff1681565b600660009054906101000a900460ff1681565b60015481565b60096020528060005260406000206000915090505481565b60075481565b600660019054906101000a900473ffffffffffffffffffffffffffffffffffffffff1681565b6000610759679d5fbd25bf67327560c01b610cd8565b61076d67bb8e99c86ac3c0db60c01b610cd8565b610781679c8584b465c7f87060c01b610cd8565b600061078b610381565b90506107a167fb7595f007faacca60c01b610cd8565b6107b5677c7e608c0b34da6c60c01b610cd8565b6107c9674ff62f23bae3aa4360c01b610cd8565b6000811161080c576040517f08c379a000000000000000000000000000000000000000000000000000000000815260040161080390610fa5565b60405180910390fd5b61082067ef0292dfb623026360c01b610cd8565b610834679a011a157a79e1f160c01b610cd8565b610848670989a285ab71772760c01b610cd8565b61085c678ec9f94ba27fff9760c01b610cd8565b6000341161089f576040517f08c379a000000000000000000000000000000000000000000000000000000000815260040161089690611037565b60405180910390fd5b6108b367aa79069bb48b4fe660c01b610cd8565b6108c767f92dfccd58bacfe260c01b610cd8565b6108db67175d70cde081445160c01b610cd8565b6108ef67b409833044ca92b260c01b610cd8565b80341015610932576040517f08c379a0000000000000000000000000000000000000000000000000000000008152600401610929906110c9565b60405180910390fd5b610946671b834c8547f66ec360c01b610cd8565b61095a671c4c22a6a47481c560c01b610cd8565b61096e67e6ca057ed3d7cd6d60c01b610cd8565b600860009054906101000a900460ff16610b855761099667beedb9708ff7274560c01b610cd8565b6109aa67c1740b89ddb0950260c01b610cd8565b33600660016101000a81548173ffffffffffffffffffffffffffffffffffffffff021916908373ffffffffffffffffffffffffffffffffffffffff1602179055506109ff674e9e450508a1fd6160c01b610cd8565b34600781905550610a1a67ac671d63da6736f960c01b610cd8565b6001600860006101000a81548160ff021916908315150217905550610a4967407ff454a5dd230360c01b610cd8565b600754600960008060009054906101000a900473ffffffffffffffffffffffffffffffffffffffff1673ffffffffffffffffffffffffffffffffffffffff1673ffffffffffffffffffffffffffffffffffffffff1681526020019081526020016000206000828254610abb91906110e9565b92505081905550610ad6674a5b19121c4baf5e60c01b610cd8565b610aea6798d79bca8f588a8f60c01b610cd8565b60008054906101000a900473ffffffffffffffffffffffffffffffffffffffff1673ffffffffffffffffffffffffffffffffffffffff166108fc6007549081150290604051600060405180830381858888f19350505050158015610b52573d6000803e3d6000fd5b50610b676757d3746ecd41a87a60c01b610cd8565b610b7b676e88b98b7c031ec460c01b610cd8565b6001915050610c31565b610b99670fe88d3dbf7abf7f60c01b610cd8565b610bad67cac6f981593d4fcc60c01b610cd8565b34600960003373ffffffffffffffffffffffffffffffffffffffff1673ffffffffffffffffffffffffffffffffffffffff1681526020019081526020016000206000828254610bfc91906110e9565b92505081905550610c1767b9c921b6c89cc8ee60c01b610cd8565b610c2b67e489b04b795ef96c60c01b610cd8565b60009150505b90565b60025481565b60045481565b600860009054906101000a900460ff1681565b6000610c6967540e7f33a3d69e6b60c01b610cd8565b610c7d67af94bd167851dccc60c01b610cd8565b610c91676c44be705788bbda60c01b610cd8565b600960008373ffffffffffffffffffffffffffffffffffffffff1673ffffffffffffffffffffffffffffffffffffffff168152602001908152602001600020549050919050565b50565b6000819050919050565b610cee81610cdb565b82525050565b6000602082019050610d096000830184610ce5565b92915050565b600073ffffffffffffffffffffffffffffffffffffffff82169050919050565b6000610d3a82610d0f565b9050919050565b610d4a81610d2f565b82525050565b6000602082019050610d656000830184610d41565b92915050565b60008115159050919050565b610d8081610d6b565b82525050565b6000602082019050610d9b6000830184610d77565b92915050565b600080fd5b6000610db182610d0f565b9050919050565b610dc181610da6565b8114610dcc57600080fd5b50565b600081359050610dde81610db8565b92915050565b600060208284031215610dfa57610df9610da1565b5b6000610e0884828501610dcf565b91505092915050565b7f4e487b7100000000000000000000000000000000000000000000000000000000600052601160045260246000fd5b6000610e4b82610cdb565b9150610e5683610cdb565b9250828203905081811115610e6e57610e6d610e11565b5b92915050565b6000610e7f82610cdb565b9150610e8a83610cdb565b9250828202610e9881610cdb565b91508282048414831517610eaf57610eae610e11565b5b5092915050565b600082825260208201905092915050565b7f4e6f20726566756e6420617661696c61626c6520666f7220746865206163636f60008201527f756e740000000000000000000000000000000000000000000000000000000000602082015250565b6000610f23602383610eb6565b9150610f2e82610ec7565b604082019050919050565b60006020820190508181036000830152610f5281610f16565b9050919050565b7f41756374696f6e2068617320636f6e636c756465640000000000000000000000600082015250565b6000610f8f601583610eb6565b9150610f9a82610f59565b602082019050919050565b60006020820190508181036000830152610fbe81610f82565b9050919050565b7f5375626d6974746564206269642076616c7565206d757374206265206772656160008201527f746572207468616e203000000000000000000000000000000000000000000000602082015250565b6000611021602a83610eb6565b915061102c82610fc5565b604082019050919050565b6000602082019050818103600083015261105081611014565b9050919050565b7f5375626d6974746564206269642076616c7565206973206c6f7765722074686160008201527f6e207468652063757272656e7420707269636500000000000000000000000000602082015250565b60006110b3603383610eb6565b91506110be82611057565b604082019050919050565b600060208201905081810360008301526110e2816110a6565b9050919050565b60006110f482610cdb565b91506110ff83610cdb565b925082820190508082111561111757611116610e11565b5b9291505056fea264697066735822122017425fec7e62d30c63e5c1e350e4ce57cd3c311781961b2e7f8cafd09cd65cba64736f6c63430008120033",
  "linkReferences": {},
  "deployedLinkReferences": {}
}